{
	"3-FundMe/FundMe.sol": {
		"FundMe": {
			"abi": [
				{
					"inputs": [],
					"name": "fund",
					"outputs": [],
					"stateMutability": "payable",
					"type": "function"
				},
				{
					"inputs": [],
					"name": "getConversionRate",
					"outputs": [],
					"stateMutability": "nonpayable",
					"type": "function"
				},
				{
					"inputs": [],
					"name": "getPrice",
					"outputs": [
						{
							"internalType": "uint256",
							"name": "",
							"type": "uint256"
						}
					],
					"stateMutability": "view",
					"type": "function"
				},
				{
					"inputs": [],
					"name": "minimumUsd",
					"outputs": [
						{
							"internalType": "uint256",
							"name": "",
							"type": "uint256"
						}
					],
					"stateMutability": "view",
					"type": "function"
				},
				{
					"inputs": [],
					"name": "withdraw",
					"outputs": [],
					"stateMutability": "nonpayable",
					"type": "function"
				}
			],
			"devdoc": {
				"kind": "dev",
				"methods": {},
				"version": 1
			},
			"evm": {
				"assembly": "    /* \"3-FundMe/FundMe.sol\":303:1659  contract FundMe {... */\n  mstore(0x40, 0x80)\n    /* \"3-FundMe/FundMe.sol\":353:354  5 */\n  0x05\n    /* \"3-FundMe/FundMe.sol\":325:354  uint256 public minimumUsd = 5 */\n  0x00\n  sstore\n    /* \"3-FundMe/FundMe.sol\":303:1659  contract FundMe {... */\n  callvalue\n  dup1\n  iszero\n  tag_1\n  jumpi\n  revert(0x00, 0x00)\ntag_1:\n  pop\n  dataSize(sub_0)\n  dup1\n  dataOffset(sub_0)\n  0x00\n  codecopy\n  0x00\n  return\nstop\n\nsub_0: assembly {\n        /* \"3-FundMe/FundMe.sol\":303:1659  contract FundMe {... */\n      mstore(0x40, 0x80)\n      jumpi(tag_1, lt(calldatasize, 0x04))\n      shr(0xe0, calldataload(0x00))\n      dup1\n      0x098de820\n      eq\n      tag_2\n      jumpi\n      dup1\n      0x3ccfd60b\n      eq\n      tag_3\n      jumpi\n      dup1\n      0x98d5fdca\n      eq\n      tag_4\n      jumpi\n      dup1\n      0xb60d4288\n      eq\n      tag_5\n      jumpi\n      dup1\n      0xf36089ec\n      eq\n      tag_6\n      jumpi\n    tag_1:\n      revert(0x00, 0x00)\n        /* \"3-FundMe/FundMe.sol\":325:354  uint256 public minimumUsd = 5 */\n    tag_2:\n      callvalue\n      dup1\n      iszero\n      tag_7\n      jumpi\n      revert(0x00, 0x00)\n    tag_7:\n      pop\n      tag_8\n      tag_9\n      jump\t// in\n    tag_8:\n      mload(0x40)\n      tag_10\n      swap2\n      swap1\n      tag_11\n      jump\t// in\n    tag_10:\n      mload(0x40)\n      dup1\n      swap2\n      sub\n      swap1\n      return\n        /* \"3-FundMe/FundMe.sol\":886:915  function withdraw() public {} */\n    tag_3:\n      callvalue\n      dup1\n      iszero\n      tag_12\n      jumpi\n      revert(0x00, 0x00)\n    tag_12:\n      pop\n      tag_13\n      tag_14\n      jump\t// in\n    tag_13:\n      stop\n        /* \"3-FundMe/FundMe.sol\":921:1613  function getPrice() public view returns(uint256){... */\n    tag_4:\n      callvalue\n      dup1\n      iszero\n      tag_15\n      jumpi\n      revert(0x00, 0x00)\n    tag_15:\n      pop\n      tag_16\n      tag_17\n      jump\t// in\n    tag_16:\n      mload(0x40)\n      tag_18\n      swap2\n      swap1\n      tag_11\n      jump\t// in\n    tag_18:\n      mload(0x40)\n      dup1\n      swap2\n      sub\n      swap1\n      return\n        /* \"3-FundMe/FundMe.sol\":365:876  function fund() public payable {... */\n    tag_5:\n      tag_19\n      tag_20\n      jump\t// in\n    tag_19:\n      stop\n        /* \"3-FundMe/FundMe.sol\":1618:1656  function getConversionRate() public {} */\n    tag_6:\n      callvalue\n      dup1\n      iszero\n      tag_21\n      jumpi\n      revert(0x00, 0x00)\n    tag_21:\n      pop\n      tag_22\n      tag_23\n      jump\t// in\n    tag_22:\n      stop\n        /* \"3-FundMe/FundMe.sol\":325:354  uint256 public minimumUsd = 5 */\n    tag_9:\n      sload(0x00)\n      dup2\n      jump\t// out\n        /* \"3-FundMe/FundMe.sol\":886:915  function withdraw() public {} */\n    tag_14:\n      jump\t// out\n        /* \"3-FundMe/FundMe.sol\":921:1613  function getPrice() public view returns(uint256){... */\n    tag_17:\n        /* \"3-FundMe/FundMe.sol\":961:968  uint256 */\n      0x00\n        /* \"3-FundMe/FundMe.sol\":1056:1087  AggregatorV3Interface priceFeed */\n      0x00\n        /* \"3-FundMe/FundMe.sol\":1112:1154  0x694AA1769357215DE4FAC081bf1f309aDC325306 */\n      0x694aa1769357215de4fac081bf1f309adc325306\n        /* \"3-FundMe/FundMe.sol\":1056:1155  AggregatorV3Interface priceFeed = AggregatorV3Interface(0x694AA1769357215DE4FAC081bf1f309aDC325306) */\n      swap1\n      pop\n        /* \"3-FundMe/FundMe.sol\":1443:1455  int256 price */\n      0x00\n        /* \"3-FundMe/FundMe.sol\":1462:1471  priceFeed */\n      dup2\n        /* \"3-FundMe/FundMe.sol\":1462:1487  priceFeed.latestRoundData */\n      0xffffffffffffffffffffffffffffffffffffffff\n      and\n      0xfeaf968c\n        /* \"3-FundMe/FundMe.sol\":1462:1489  priceFeed.latestRoundData() */\n      mload(0x40)\n      dup2\n      0xffffffff\n      and\n      0xe0\n      shl\n      dup2\n      mstore\n      0x04\n      add\n      0xa0\n      mload(0x40)\n      dup1\n      dup4\n      sub\n      dup2\n      dup7\n      gas\n      staticcall\n      iszero\n      dup1\n      iszero\n      tag_27\n      jumpi\n      returndatacopy(0x00, 0x00, returndatasize)\n      revert(0x00, returndatasize)\n    tag_27:\n      pop\n      pop\n      pop\n      pop\n      mload(0x40)\n      returndatasize\n      not(0x1f)\n      0x1f\n      dup3\n      add\n      and\n      dup3\n      add\n      dup1\n      0x40\n      mstore\n      pop\n      dup2\n      add\n      swap1\n      tag_28\n      swap2\n      swap1\n      tag_29\n      jump\t// in\n    tag_28:\n        /* \"3-FundMe/FundMe.sol\":1441:1489  (,int256 price,,,) = priceFeed.latestRoundData() */\n      pop\n      pop\n      pop\n      swap2\n      pop\n      pop\n        /* \"3-FundMe/FundMe.sol\":1601:1605  1e10 */\n      0x02540be400\n        /* \"3-FundMe/FundMe.sol\":1593:1598  price */\n      dup2\n        /* \"3-FundMe/FundMe.sol\":1593:1605  price * 1e10 */\n      tag_30\n      swap2\n      swap1\n      tag_31\n      jump\t// in\n    tag_30:\n        /* \"3-FundMe/FundMe.sol\":1578:1606  return uint256(price * 1e10) */\n      swap3\n      pop\n      pop\n      pop\n        /* \"3-FundMe/FundMe.sol\":921:1613  function getPrice() public view returns(uint256){... */\n      swap1\n      jump\t// out\n        /* \"3-FundMe/FundMe.sol\":365:876  function fund() public payable {... */\n    tag_20:\n        /* \"3-FundMe/FundMe.sol\":629:639  minimumUsd */\n      sload(0x00)\n        /* \"3-FundMe/FundMe.sol\":617:626  msg.value */\n      callvalue\n        /* \"3-FundMe/FundMe.sol\":617:639  msg.value > minimumUsd */\n      gt\n        /* \"3-FundMe/FundMe.sol\":609:666  require(msg.value > minimumUsd, \"didn't send enough ETH\") */\n      tag_33\n      jumpi\n      mload(0x40)\n      0x08c379a000000000000000000000000000000000000000000000000000000000\n      dup2\n      mstore\n      0x04\n      add\n      tag_34\n      swap1\n      tag_35\n      jump\t// in\n    tag_34:\n      mload(0x40)\n      dup1\n      swap2\n      sub\n      swap1\n      revert\n    tag_33:\n        /* \"3-FundMe/FundMe.sol\":365:876  function fund() public payable {... */\n      jump\t// out\n        /* \"3-FundMe/FundMe.sol\":1618:1656  function getConversionRate() public {} */\n    tag_23:\n      jump\t// out\n        /* \"#utility.yul\":7:84   */\n    tag_37:\n        /* \"#utility.yul\":44:51   */\n      0x00\n        /* \"#utility.yul\":73:78   */\n      dup2\n        /* \"#utility.yul\":62:78   */\n      swap1\n      pop\n        /* \"#utility.yul\":7:84   */\n      swap2\n      swap1\n      pop\n      jump\t// out\n        /* \"#utility.yul\":90:208   */\n    tag_38:\n        /* \"#utility.yul\":177:201   */\n      tag_57\n        /* \"#utility.yul\":195:200   */\n      dup2\n        /* \"#utility.yul\":177:201   */\n      tag_37\n      jump\t// in\n    tag_57:\n        /* \"#utility.yul\":172:175   */\n      dup3\n        /* \"#utility.yul\":165:202   */\n      mstore\n        /* \"#utility.yul\":90:208   */\n      pop\n      pop\n      jump\t// out\n        /* \"#utility.yul\":214:436   */\n    tag_11:\n        /* \"#utility.yul\":307:311   */\n      0x00\n        /* \"#utility.yul\":345:347   */\n      0x20\n        /* \"#utility.yul\":334:343   */\n      dup3\n        /* \"#utility.yul\":330:348   */\n      add\n        /* \"#utility.yul\":322:348   */\n      swap1\n      pop\n        /* \"#utility.yul\":358:429   */\n      tag_59\n        /* \"#utility.yul\":426:427   */\n      0x00\n        /* \"#utility.yul\":415:424   */\n      dup4\n        /* \"#utility.yul\":411:428   */\n      add\n        /* \"#utility.yul\":402:408   */\n      dup5\n        /* \"#utility.yul\":358:429   */\n      tag_38\n      jump\t// in\n    tag_59:\n        /* \"#utility.yul\":214:436   */\n      swap3\n      swap2\n      pop\n      pop\n      jump\t// out\n        /* \"#utility.yul\":523:640   */\n    tag_40:\n        /* \"#utility.yul\":632:633   */\n      0x00\n        /* \"#utility.yul\":629:630   */\n      0x00\n        /* \"#utility.yul\":622:634   */\n      revert\n        /* \"#utility.yul\":769:874   */\n    tag_42:\n        /* \"#utility.yul\":805:812   */\n      0x00\n        /* \"#utility.yul\":845:867   */\n      0xffffffffffffffffffff\n        /* \"#utility.yul\":838:843   */\n      dup3\n        /* \"#utility.yul\":834:868   */\n      and\n        /* \"#utility.yul\":823:868   */\n      swap1\n      pop\n        /* \"#utility.yul\":769:874   */\n      swap2\n      swap1\n      pop\n      jump\t// out\n        /* \"#utility.yul\":880:1000   */\n    tag_43:\n        /* \"#utility.yul\":952:975   */\n      tag_65\n        /* \"#utility.yul\":969:974   */\n      dup2\n        /* \"#utility.yul\":952:975   */\n      tag_42\n      jump\t// in\n    tag_65:\n        /* \"#utility.yul\":945:950   */\n      dup2\n        /* \"#utility.yul\":942:976   */\n      eq\n        /* \"#utility.yul\":932:994   */\n      tag_66\n      jumpi\n        /* \"#utility.yul\":990:991   */\n      0x00\n        /* \"#utility.yul\":987:988   */\n      0x00\n        /* \"#utility.yul\":980:992   */\n      revert\n        /* \"#utility.yul\":932:994   */\n    tag_66:\n        /* \"#utility.yul\":880:1000   */\n      pop\n      jump\t// out\n        /* \"#utility.yul\":1006:1147   */\n    tag_44:\n        /* \"#utility.yul\":1062:1067   */\n      0x00\n        /* \"#utility.yul\":1093:1099   */\n      dup2\n        /* \"#utility.yul\":1087:1100   */\n      mload\n        /* \"#utility.yul\":1078:1100   */\n      swap1\n      pop\n        /* \"#utility.yul\":1109:1141   */\n      tag_68\n        /* \"#utility.yul\":1135:1140   */\n      dup2\n        /* \"#utility.yul\":1109:1141   */\n      tag_43\n      jump\t// in\n    tag_68:\n        /* \"#utility.yul\":1006:1147   */\n      swap3\n      swap2\n      pop\n      pop\n      jump\t// out\n        /* \"#utility.yul\":1153:1229   */\n    tag_45:\n        /* \"#utility.yul\":1189:1196   */\n      0x00\n        /* \"#utility.yul\":1218:1223   */\n      dup2\n        /* \"#utility.yul\":1207:1223   */\n      swap1\n      pop\n        /* \"#utility.yul\":1153:1229   */\n      swap2\n      swap1\n      pop\n      jump\t// out\n        /* \"#utility.yul\":1235:1355   */\n    tag_46:\n        /* \"#utility.yul\":1307:1330   */\n      tag_71\n        /* \"#utility.yul\":1324:1329   */\n      dup2\n        /* \"#utility.yul\":1307:1330   */\n      tag_45\n      jump\t// in\n    tag_71:\n        /* \"#utility.yul\":1300:1305   */\n      dup2\n        /* \"#utility.yul\":1297:1331   */\n      eq\n        /* \"#utility.yul\":1287:1349   */\n      tag_72\n      jumpi\n        /* \"#utility.yul\":1345:1346   */\n      0x00\n        /* \"#utility.yul\":1342:1343   */\n      0x00\n        /* \"#utility.yul\":1335:1347   */\n      revert\n        /* \"#utility.yul\":1287:1349   */\n    tag_72:\n        /* \"#utility.yul\":1235:1355   */\n      pop\n      jump\t// out\n        /* \"#utility.yul\":1361:1502   */\n    tag_47:\n        /* \"#utility.yul\":1417:1422   */\n      0x00\n        /* \"#utility.yul\":1448:1454   */\n      dup2\n        /* \"#utility.yul\":1442:1455   */\n      mload\n        /* \"#utility.yul\":1433:1455   */\n      swap1\n      pop\n        /* \"#utility.yul\":1464:1496   */\n      tag_74\n        /* \"#utility.yul\":1490:1495   */\n      dup2\n        /* \"#utility.yul\":1464:1496   */\n      tag_46\n      jump\t// in\n    tag_74:\n        /* \"#utility.yul\":1361:1502   */\n      swap3\n      swap2\n      pop\n      pop\n      jump\t// out\n        /* \"#utility.yul\":1508:1630   */\n    tag_48:\n        /* \"#utility.yul\":1581:1605   */\n      tag_76\n        /* \"#utility.yul\":1599:1604   */\n      dup2\n        /* \"#utility.yul\":1581:1605   */\n      tag_37\n      jump\t// in\n    tag_76:\n        /* \"#utility.yul\":1574:1579   */\n      dup2\n        /* \"#utility.yul\":1571:1606   */\n      eq\n        /* \"#utility.yul\":1561:1624   */\n      tag_77\n      jumpi\n        /* \"#utility.yul\":1620:1621   */\n      0x00\n        /* \"#utility.yul\":1617:1618   */\n      0x00\n        /* \"#utility.yul\":1610:1622   */\n      revert\n        /* \"#utility.yul\":1561:1624   */\n    tag_77:\n        /* \"#utility.yul\":1508:1630   */\n      pop\n      jump\t// out\n        /* \"#utility.yul\":1636:1779   */\n    tag_49:\n        /* \"#utility.yul\":1693:1698   */\n      0x00\n        /* \"#utility.yul\":1724:1730   */\n      dup2\n        /* \"#utility.yul\":1718:1731   */\n      mload\n        /* \"#utility.yul\":1709:1731   */\n      swap1\n      pop\n        /* \"#utility.yul\":1740:1773   */\n      tag_79\n        /* \"#utility.yul\":1767:1772   */\n      dup2\n        /* \"#utility.yul\":1740:1773   */\n      tag_48\n      jump\t// in\n    tag_79:\n        /* \"#utility.yul\":1636:1779   */\n      swap3\n      swap2\n      pop\n      pop\n      jump\t// out\n        /* \"#utility.yul\":1785:2756   */\n    tag_29:\n        /* \"#utility.yul\":1888:1894   */\n      0x00\n        /* \"#utility.yul\":1896:1902   */\n      0x00\n        /* \"#utility.yul\":1904:1910   */\n      0x00\n        /* \"#utility.yul\":1912:1918   */\n      0x00\n        /* \"#utility.yul\":1920:1926   */\n      0x00\n        /* \"#utility.yul\":1969:1972   */\n      0xa0\n        /* \"#utility.yul\":1957:1966   */\n      dup7\n        /* \"#utility.yul\":1948:1955   */\n      dup9\n        /* \"#utility.yul\":1944:1967   */\n      sub\n        /* \"#utility.yul\":1940:1973   */\n      slt\n        /* \"#utility.yul\":1937:2057   */\n      iszero\n      tag_81\n      jumpi\n        /* \"#utility.yul\":1976:2055   */\n      tag_82\n      tag_40\n      jump\t// in\n    tag_82:\n        /* \"#utility.yul\":1937:2057   */\n    tag_81:\n        /* \"#utility.yul\":2096:2097   */\n      0x00\n        /* \"#utility.yul\":2121:2184   */\n      tag_83\n        /* \"#utility.yul\":2176:2183   */\n      dup9\n        /* \"#utility.yul\":2167:2173   */\n      dup3\n        /* \"#utility.yul\":2156:2165   */\n      dup10\n        /* \"#utility.yul\":2152:2174   */\n      add\n        /* \"#utility.yul\":2121:2184   */\n      tag_44\n      jump\t// in\n    tag_83:\n        /* \"#utility.yul\":2111:2184   */\n      swap6\n      pop\n        /* \"#utility.yul\":2067:2194   */\n      pop\n        /* \"#utility.yul\":2233:2235   */\n      0x20\n        /* \"#utility.yul\":2259:2322   */\n      tag_84\n        /* \"#utility.yul\":2314:2321   */\n      dup9\n        /* \"#utility.yul\":2305:2311   */\n      dup3\n        /* \"#utility.yul\":2294:2303   */\n      dup10\n        /* \"#utility.yul\":2290:2312   */\n      add\n        /* \"#utility.yul\":2259:2322   */\n      tag_47\n      jump\t// in\n    tag_84:\n        /* \"#utility.yul\":2249:2322   */\n      swap5\n      pop\n        /* \"#utility.yul\":2204:2332   */\n      pop\n        /* \"#utility.yul\":2371:2373   */\n      0x40\n        /* \"#utility.yul\":2397:2461   */\n      tag_85\n        /* \"#utility.yul\":2453:2460   */\n      dup9\n        /* \"#utility.yul\":2444:2450   */\n      dup3\n        /* \"#utility.yul\":2433:2442   */\n      dup10\n        /* \"#utility.yul\":2429:2451   */\n      add\n        /* \"#utility.yul\":2397:2461   */\n      tag_49\n      jump\t// in\n    tag_85:\n        /* \"#utility.yul\":2387:2461   */\n      swap4\n      pop\n        /* \"#utility.yul\":2342:2471   */\n      pop\n        /* \"#utility.yul\":2510:2512   */\n      0x60\n        /* \"#utility.yul\":2536:2600   */\n      tag_86\n        /* \"#utility.yul\":2592:2599   */\n      dup9\n        /* \"#utility.yul\":2583:2589   */\n      dup3\n        /* \"#utility.yul\":2572:2581   */\n      dup10\n        /* \"#utility.yul\":2568:2590   */\n      add\n        /* \"#utility.yul\":2536:2600   */\n      tag_49\n      jump\t// in\n    tag_86:\n        /* \"#utility.yul\":2526:2600   */\n      swap3\n      pop\n        /* \"#utility.yul\":2481:2610   */\n      pop\n        /* \"#utility.yul\":2649:2652   */\n      0x80\n        /* \"#utility.yul\":2676:2739   */\n      tag_87\n        /* \"#utility.yul\":2731:2738   */\n      dup9\n        /* \"#utility.yul\":2722:2728   */\n      dup3\n        /* \"#utility.yul\":2711:2720   */\n      dup10\n        /* \"#utility.yul\":2707:2729   */\n      add\n        /* \"#utility.yul\":2676:2739   */\n      tag_44\n      jump\t// in\n    tag_87:\n        /* \"#utility.yul\":2666:2739   */\n      swap2\n      pop\n        /* \"#utility.yul\":2620:2749   */\n      pop\n        /* \"#utility.yul\":1785:2756   */\n      swap3\n      swap6\n      pop\n      swap3\n      swap6\n      swap1\n      swap4\n      pop\n      jump\t// out\n        /* \"#utility.yul\":2762:2942   */\n    tag_50:\n        /* \"#utility.yul\":2810:2887   */\n      0x4e487b7100000000000000000000000000000000000000000000000000000000\n        /* \"#utility.yul\":2807:2808   */\n      0x00\n        /* \"#utility.yul\":2800:2888   */\n      mstore\n        /* \"#utility.yul\":2907:2911   */\n      0x11\n        /* \"#utility.yul\":2904:2905   */\n      0x04\n        /* \"#utility.yul\":2897:2912   */\n      mstore\n        /* \"#utility.yul\":2931:2935   */\n      0x24\n        /* \"#utility.yul\":2928:2929   */\n      0x00\n        /* \"#utility.yul\":2921:2936   */\n      revert\n        /* \"#utility.yul\":2948:3504   */\n    tag_31:\n        /* \"#utility.yul\":2987:2994   */\n      0x00\n        /* \"#utility.yul\":3010:3029   */\n      tag_90\n        /* \"#utility.yul\":3027:3028   */\n      dup3\n        /* \"#utility.yul\":3010:3029   */\n      tag_45\n      jump\t// in\n    tag_90:\n        /* \"#utility.yul\":3005:3029   */\n      swap2\n      pop\n        /* \"#utility.yul\":3043:3062   */\n      tag_91\n        /* \"#utility.yul\":3060:3061   */\n      dup4\n        /* \"#utility.yul\":3043:3062   */\n      tag_45\n      jump\t// in\n    tag_91:\n        /* \"#utility.yul\":3038:3062   */\n      swap3\n      pop\n        /* \"#utility.yul\":3097:3098   */\n      dup3\n        /* \"#utility.yul\":3094:3095   */\n      dup3\n        /* \"#utility.yul\":3090:3099   */\n      mul\n        /* \"#utility.yul\":3119:3148   */\n      tag_92\n        /* \"#utility.yul\":3136:3147   */\n      dup2\n        /* \"#utility.yul\":3119:3148   */\n      tag_45\n      jump\t// in\n    tag_92:\n        /* \"#utility.yul\":3108:3148   */\n      swap2\n      pop\n        /* \"#utility.yul\":3206:3272   */\n      0x8000000000000000000000000000000000000000000000000000000000000000\n        /* \"#utility.yul\":3203:3204   */\n      dup5\n        /* \"#utility.yul\":3200:3273   */\n      eq\n        /* \"#utility.yul\":3196:3197   */\n      0x00\n        /* \"#utility.yul\":3193:3194   */\n      dup5\n        /* \"#utility.yul\":3189:3198   */\n      slt\n        /* \"#utility.yul\":3185:3274   */\n      and\n        /* \"#utility.yul\":3182:3297   */\n      iszero\n      tag_93\n      jumpi\n        /* \"#utility.yul\":3277:3295   */\n      tag_94\n      tag_50\n      jump\t// in\n    tag_94:\n        /* \"#utility.yul\":3182:3297   */\n    tag_93:\n        /* \"#utility.yul\":3447:3448   */\n      dup3\n        /* \"#utility.yul\":3438:3445   */\n      dup3\n        /* \"#utility.yul\":3433:3449   */\n      sdiv\n        /* \"#utility.yul\":3430:3431   */\n      dup5\n        /* \"#utility.yul\":3427:3450   */\n      eq\n        /* \"#utility.yul\":3407:3408   */\n      dup4\n        /* \"#utility.yul\":3400:3409   */\n      iszero\n        /* \"#utility.yul\":3380:3464   */\n      or\n        /* \"#utility.yul\":3357:3497   */\n      tag_95\n      jumpi\n        /* \"#utility.yul\":3477:3495   */\n      tag_96\n      tag_50\n      jump\t// in\n    tag_96:\n        /* \"#utility.yul\":3357:3497   */\n    tag_95:\n        /* \"#utility.yul\":2995:3504   */\n      pop\n        /* \"#utility.yul\":2948:3504   */\n      swap3\n      swap2\n      pop\n      pop\n      jump\t// out\n        /* \"#utility.yul\":3510:3679   */\n    tag_51:\n        /* \"#utility.yul\":3594:3605   */\n      0x00\n        /* \"#utility.yul\":3628:3634   */\n      dup3\n        /* \"#utility.yul\":3623:3626   */\n      dup3\n        /* \"#utility.yul\":3616:3635   */\n      mstore\n        /* \"#utility.yul\":3668:3672   */\n      0x20\n        /* \"#utility.yul\":3663:3666   */\n      dup3\n        /* \"#utility.yul\":3659:3673   */\n      add\n        /* \"#utility.yul\":3644:3673   */\n      swap1\n      pop\n        /* \"#utility.yul\":3510:3679   */\n      swap3\n      swap2\n      pop\n      pop\n      jump\t// out\n        /* \"#utility.yul\":3685:3857   */\n    tag_52:\n        /* \"#utility.yul\":3825:3849   */\n      0x6469646e27742073656e6420656e6f7567682045544800000000000000000000\n        /* \"#utility.yul\":3821:3822   */\n      0x00\n        /* \"#utility.yul\":3813:3819   */\n      dup3\n        /* \"#utility.yul\":3809:3823   */\n      add\n        /* \"#utility.yul\":3802:3850   */\n      mstore\n        /* \"#utility.yul\":3685:3857   */\n      pop\n      jump\t// out\n        /* \"#utility.yul\":3863:4229   */\n    tag_53:\n        /* \"#utility.yul\":4005:4008   */\n      0x00\n        /* \"#utility.yul\":4026:4093   */\n      tag_100\n        /* \"#utility.yul\":4090:4092   */\n      0x16\n        /* \"#utility.yul\":4085:4088   */\n      dup4\n        /* \"#utility.yul\":4026:4093   */\n      tag_51\n      jump\t// in\n    tag_100:\n        /* \"#utility.yul\":4019:4093   */\n      swap2\n      pop\n        /* \"#utility.yul\":4102:4195   */\n      tag_101\n        /* \"#utility.yul\":4191:4194   */\n      dup3\n        /* \"#utility.yul\":4102:4195   */\n      tag_52\n      jump\t// in\n    tag_101:\n        /* \"#utility.yul\":4220:4222   */\n      0x20\n        /* \"#utility.yul\":4215:4218   */\n      dup3\n        /* \"#utility.yul\":4211:4223   */\n      add\n        /* \"#utility.yul\":4204:4223   */\n      swap1\n      pop\n        /* \"#utility.yul\":3863:4229   */\n      swap2\n      swap1\n      pop\n      jump\t// out\n        /* \"#utility.yul\":4235:4654   */\n    tag_35:\n        /* \"#utility.yul\":4401:4405   */\n      0x00\n        /* \"#utility.yul\":4439:4441   */\n      0x20\n        /* \"#utility.yul\":4428:4437   */\n      dup3\n        /* \"#utility.yul\":4424:4442   */\n      add\n        /* \"#utility.yul\":4416:4442   */\n      swap1\n      pop\n        /* \"#utility.yul\":4488:4497   */\n      dup2\n        /* \"#utility.yul\":4482:4486   */\n      dup2\n        /* \"#utility.yul\":4478:4498   */\n      sub\n        /* \"#utility.yul\":4474:4475   */\n      0x00\n        /* \"#utility.yul\":4463:4472   */\n      dup4\n        /* \"#utility.yul\":4459:4476   */\n      add\n        /* \"#utility.yul\":4452:4499   */\n      mstore\n        /* \"#utility.yul\":4516:4647   */\n      tag_103\n        /* \"#utility.yul\":4642:4646   */\n      dup2\n        /* \"#utility.yul\":4516:4647   */\n      tag_53\n      jump\t// in\n    tag_103:\n        /* \"#utility.yul\":4508:4647   */\n      swap1\n      pop\n        /* \"#utility.yul\":4235:4654   */\n      swap2\n      swap1\n      pop\n      jump\t// out\n\n    auxdata: 0xa2646970667358221220c55f72c5adfa590ffe09bde1637248aaf7205876fa247ad26cd227027826cefe64736f6c634300081e0033\n}\n",
				"bytecode": {
					"linkReferences": {},
					"object": "608060405260055f553480156012575f5ffd5b50610463806100205f395ff3fe608060405260043610610049575f3560e01c8063098de8201461004d5780633ccfd60b1461007757806398d5fdca1461008d578063b60d4288146100b7578063f36089ec146100c1575b5f5ffd5b348015610058575f5ffd5b506100616100d7565b60405161006e91906101e2565b60405180910390f35b348015610082575f5ffd5b5061008b6100dc565b005b348015610098575f5ffd5b506100a16100de565b6040516100ae91906101e2565b60405180910390f35b6100bf610183565b005b3480156100cc575f5ffd5b506100d56101c8565b005b5f5481565b565b5f5f73694aa1769357215de4fac081bf1f309adc32530690505f8173ffffffffffffffffffffffffffffffffffffffff1663feaf968c6040518163ffffffff1660e01b815260040160a060405180830381865afa158015610141573d5f5f3e3d5ffd5b505050506040513d601f19601f82011682018060405250810190610165919061029b565b5050509150506402540be4008161017c919061033f565b9250505090565b5f5434116101c6576040517f08c379a00000000000000000000000000000000000000000000000000000000081526004016101bd9061040f565b60405180910390fd5b565b565b5f819050919050565b6101dc816101ca565b82525050565b5f6020820190506101f55f8301846101d3565b92915050565b5f5ffd5b5f69ffffffffffffffffffff82169050919050565b61021d816101ff565b8114610227575f5ffd5b50565b5f8151905061023881610214565b92915050565b5f819050919050565b6102508161023e565b811461025a575f5ffd5b50565b5f8151905061026b81610247565b92915050565b61027a816101ca565b8114610284575f5ffd5b50565b5f8151905061029581610271565b92915050565b5f5f5f5f5f60a086880312156102b4576102b36101fb565b5b5f6102c18882890161022a565b95505060206102d28882890161025d565b94505060406102e388828901610287565b93505060606102f488828901610287565b92505060806103058882890161022a565b9150509295509295909350565b7f4e487b71000000000000000000000000000000000000000000000000000000005f52601160045260245ffd5b5f6103498261023e565b91506103548361023e565b92508282026103628161023e565b91507f800000000000000000000000000000000000000000000000000000000000000084145f8412161561039957610398610312565b5b82820584148315176103ae576103ad610312565b5b5092915050565b5f82825260208201905092915050565b7f6469646e27742073656e6420656e6f75676820455448000000000000000000005f82015250565b5f6103f96016836103b5565b9150610404826103c5565b602082019050919050565b5f6020820190508181035f830152610426816103ed565b905091905056fea2646970667358221220c55f72c5adfa590ffe09bde1637248aaf7205876fa247ad26cd227027826cefe64736f6c634300081e0033",
					"opcodes": "PUSH1 0x80 PUSH1 0x40 MSTORE PUSH1 0x5 PUSH0 SSTORE CALLVALUE DUP1 ISZERO PUSH1 0x12 JUMPI PUSH0 PUSH0 REVERT JUMPDEST POP PUSH2 0x463 DUP1 PUSH2 0x20 PUSH0 CODECOPY PUSH0 RETURN INVALID PUSH1 0x80 PUSH1 0x40 MSTORE PUSH1 0x4 CALLDATASIZE LT PUSH2 0x49 JUMPI PUSH0 CALLDATALOAD PUSH1 0xE0 SHR DUP1 PUSH4 0x98DE820 EQ PUSH2 0x4D JUMPI DUP1 PUSH4 0x3CCFD60B EQ PUSH2 0x77 JUMPI DUP1 PUSH4 0x98D5FDCA EQ PUSH2 0x8D JUMPI DUP1 PUSH4 0xB60D4288 EQ PUSH2 0xB7 JUMPI DUP1 PUSH4 0xF36089EC EQ PUSH2 0xC1 JUMPI JUMPDEST PUSH0 PUSH0 REVERT JUMPDEST CALLVALUE DUP1 ISZERO PUSH2 0x58 JUMPI PUSH0 PUSH0 REVERT JUMPDEST POP PUSH2 0x61 PUSH2 0xD7 JUMP JUMPDEST PUSH1 0x40 MLOAD PUSH2 0x6E SWAP2 SWAP1 PUSH2 0x1E2 JUMP JUMPDEST PUSH1 0x40 MLOAD DUP1 SWAP2 SUB SWAP1 RETURN JUMPDEST CALLVALUE DUP1 ISZERO PUSH2 0x82 JUMPI PUSH0 PUSH0 REVERT JUMPDEST POP PUSH2 0x8B PUSH2 0xDC JUMP JUMPDEST STOP JUMPDEST CALLVALUE DUP1 ISZERO PUSH2 0x98 JUMPI PUSH0 PUSH0 REVERT JUMPDEST POP PUSH2 0xA1 PUSH2 0xDE JUMP JUMPDEST PUSH1 0x40 MLOAD PUSH2 0xAE SWAP2 SWAP1 PUSH2 0x1E2 JUMP JUMPDEST PUSH1 0x40 MLOAD DUP1 SWAP2 SUB SWAP1 RETURN JUMPDEST PUSH2 0xBF PUSH2 0x183 JUMP JUMPDEST STOP JUMPDEST CALLVALUE DUP1 ISZERO PUSH2 0xCC JUMPI PUSH0 PUSH0 REVERT JUMPDEST POP PUSH2 0xD5 PUSH2 0x1C8 JUMP JUMPDEST STOP JUMPDEST PUSH0 SLOAD DUP2 JUMP JUMPDEST JUMP JUMPDEST PUSH0 PUSH0 PUSH20 0x694AA1769357215DE4FAC081BF1F309ADC325306 SWAP1 POP PUSH0 DUP2 PUSH20 0xFFFFFFFFFFFFFFFFFFFFFFFFFFFFFFFFFFFFFFFF AND PUSH4 0xFEAF968C PUSH1 0x40 MLOAD DUP2 PUSH4 0xFFFFFFFF AND PUSH1 0xE0 SHL DUP2 MSTORE PUSH1 0x4 ADD PUSH1 0xA0 PUSH1 0x40 MLOAD DUP1 DUP4 SUB DUP2 DUP7 GAS STATICCALL ISZERO DUP1 ISZERO PUSH2 0x141 JUMPI RETURNDATASIZE PUSH0 PUSH0 RETURNDATACOPY RETURNDATASIZE PUSH0 REVERT JUMPDEST POP POP POP POP PUSH1 0x40 MLOAD RETURNDATASIZE PUSH1 0x1F NOT PUSH1 0x1F DUP3 ADD AND DUP3 ADD DUP1 PUSH1 0x40 MSTORE POP DUP2 ADD SWAP1 PUSH2 0x165 SWAP2 SWAP1 PUSH2 0x29B JUMP JUMPDEST POP POP POP SWAP2 POP POP PUSH5 0x2540BE400 DUP2 PUSH2 0x17C SWAP2 SWAP1 PUSH2 0x33F JUMP JUMPDEST SWAP3 POP POP POP SWAP1 JUMP JUMPDEST PUSH0 SLOAD CALLVALUE GT PUSH2 0x1C6 JUMPI PUSH1 0x40 MLOAD PUSH32 0x8C379A000000000000000000000000000000000000000000000000000000000 DUP2 MSTORE PUSH1 0x4 ADD PUSH2 0x1BD SWAP1 PUSH2 0x40F JUMP JUMPDEST PUSH1 0x40 MLOAD DUP1 SWAP2 SUB SWAP1 REVERT JUMPDEST JUMP JUMPDEST JUMP JUMPDEST PUSH0 DUP2 SWAP1 POP SWAP2 SWAP1 POP JUMP JUMPDEST PUSH2 0x1DC DUP2 PUSH2 0x1CA JUMP JUMPDEST DUP3 MSTORE POP POP JUMP JUMPDEST PUSH0 PUSH1 0x20 DUP3 ADD SWAP1 POP PUSH2 0x1F5 PUSH0 DUP4 ADD DUP5 PUSH2 0x1D3 JUMP JUMPDEST SWAP3 SWAP2 POP POP JUMP JUMPDEST PUSH0 PUSH0 REVERT JUMPDEST PUSH0 PUSH10 0xFFFFFFFFFFFFFFFFFFFF DUP3 AND SWAP1 POP SWAP2 SWAP1 POP JUMP JUMPDEST PUSH2 0x21D DUP2 PUSH2 0x1FF JUMP JUMPDEST DUP2 EQ PUSH2 0x227 JUMPI PUSH0 PUSH0 REVERT JUMPDEST POP JUMP JUMPDEST PUSH0 DUP2 MLOAD SWAP1 POP PUSH2 0x238 DUP2 PUSH2 0x214 JUMP JUMPDEST SWAP3 SWAP2 POP POP JUMP JUMPDEST PUSH0 DUP2 SWAP1 POP SWAP2 SWAP1 POP JUMP JUMPDEST PUSH2 0x250 DUP2 PUSH2 0x23E JUMP JUMPDEST DUP2 EQ PUSH2 0x25A JUMPI PUSH0 PUSH0 REVERT JUMPDEST POP JUMP JUMPDEST PUSH0 DUP2 MLOAD SWAP1 POP PUSH2 0x26B DUP2 PUSH2 0x247 JUMP JUMPDEST SWAP3 SWAP2 POP POP JUMP JUMPDEST PUSH2 0x27A DUP2 PUSH2 0x1CA JUMP JUMPDEST DUP2 EQ PUSH2 0x284 JUMPI PUSH0 PUSH0 REVERT JUMPDEST POP JUMP JUMPDEST PUSH0 DUP2 MLOAD SWAP1 POP PUSH2 0x295 DUP2 PUSH2 0x271 JUMP JUMPDEST SWAP3 SWAP2 POP POP JUMP JUMPDEST PUSH0 PUSH0 PUSH0 PUSH0 PUSH0 PUSH1 0xA0 DUP7 DUP9 SUB SLT ISZERO PUSH2 0x2B4 JUMPI PUSH2 0x2B3 PUSH2 0x1FB JUMP JUMPDEST JUMPDEST PUSH0 PUSH2 0x2C1 DUP9 DUP3 DUP10 ADD PUSH2 0x22A JUMP JUMPDEST SWAP6 POP POP PUSH1 0x20 PUSH2 0x2D2 DUP9 DUP3 DUP10 ADD PUSH2 0x25D JUMP JUMPDEST SWAP5 POP POP PUSH1 0x40 PUSH2 0x2E3 DUP9 DUP3 DUP10 ADD PUSH2 0x287 JUMP JUMPDEST SWAP4 POP POP PUSH1 0x60 PUSH2 0x2F4 DUP9 DUP3 DUP10 ADD PUSH2 0x287 JUMP JUMPDEST SWAP3 POP POP PUSH1 0x80 PUSH2 0x305 DUP9 DUP3 DUP10 ADD PUSH2 0x22A JUMP JUMPDEST SWAP2 POP POP SWAP3 SWAP6 POP SWAP3 SWAP6 SWAP1 SWAP4 POP JUMP JUMPDEST PUSH32 0x4E487B7100000000000000000000000000000000000000000000000000000000 PUSH0 MSTORE PUSH1 0x11 PUSH1 0x4 MSTORE PUSH1 0x24 PUSH0 REVERT JUMPDEST PUSH0 PUSH2 0x349 DUP3 PUSH2 0x23E JUMP JUMPDEST SWAP2 POP PUSH2 0x354 DUP4 PUSH2 0x23E JUMP JUMPDEST SWAP3 POP DUP3 DUP3 MUL PUSH2 0x362 DUP2 PUSH2 0x23E JUMP JUMPDEST SWAP2 POP PUSH32 0x8000000000000000000000000000000000000000000000000000000000000000 DUP5 EQ PUSH0 DUP5 SLT AND ISZERO PUSH2 0x399 JUMPI PUSH2 0x398 PUSH2 0x312 JUMP JUMPDEST JUMPDEST DUP3 DUP3 SDIV DUP5 EQ DUP4 ISZERO OR PUSH2 0x3AE JUMPI PUSH2 0x3AD PUSH2 0x312 JUMP JUMPDEST JUMPDEST POP SWAP3 SWAP2 POP POP JUMP JUMPDEST PUSH0 DUP3 DUP3 MSTORE PUSH1 0x20 DUP3 ADD SWAP1 POP SWAP3 SWAP2 POP POP JUMP JUMPDEST PUSH32 0x6469646E27742073656E6420656E6F7567682045544800000000000000000000 PUSH0 DUP3 ADD MSTORE POP JUMP JUMPDEST PUSH0 PUSH2 0x3F9 PUSH1 0x16 DUP4 PUSH2 0x3B5 JUMP JUMPDEST SWAP2 POP PUSH2 0x404 DUP3 PUSH2 0x3C5 JUMP JUMPDEST PUSH1 0x20 DUP3 ADD SWAP1 POP SWAP2 SWAP1 POP JUMP JUMPDEST PUSH0 PUSH1 0x20 DUP3 ADD SWAP1 POP DUP2 DUP2 SUB PUSH0 DUP4 ADD MSTORE PUSH2 0x426 DUP2 PUSH2 0x3ED JUMP JUMPDEST SWAP1 POP SWAP2 SWAP1 POP JUMP INVALID LOG2 PUSH5 0x6970667358 0x22 SLT KECCAK256 0xC5 PUSH0 PUSH19 0xC5ADFA590FFE09BDE1637248AAF7205876FA24 PUSH27 0xD26CD227027826CEFE64736F6C634300081E003300000000000000 "
				},
				"gasEstimates": {
					"creation": {
						"codeDepositCost": "224600",
						"executionCost": "22372",
						"totalCost": "246972"
					},
					"external": {
						"fund()": "2568",
						"getConversionRate()": "209",
						"getPrice()": "infinite",
						"minimumUsd()": "2402",
						"withdraw()": "143"
					}
				},
				"methodIdentifiers": {
					"fund()": "b60d4288",
					"getConversionRate()": "f36089ec",
					"getPrice()": "98d5fdca",
					"minimumUsd()": "098de820",
					"withdraw()": "3ccfd60b"
				}
			},
			"storageLayout": {
				"storage": [
					{
						"astId": 6,
						"contract": "3-FundMe/FundMe.sol:FundMe",
						"label": "minimumUsd",
						"offset": 0,
						"slot": "0",
						"type": "t_uint256"
					}
				],
				"types": {
					"t_uint256": {
						"encoding": "inplace",
						"label": "uint256",
						"numberOfBytes": "32"
					}
				}
			},
			"userdoc": {
				"kind": "user",
				"methods": {},
				"version": 1
			}
		}
	}
}