{
	"3-FundMe/FundMe.sol": {
		"FundMe": {
			"abi": [
				{
					"inputs": [
						{
							"internalType": "address",
							"name": "funder",
							"type": "address"
						}
					],
					"name": "addressToAmountFunded",
					"outputs": [
						{
							"internalType": "uint256",
							"name": "amountFunded",
							"type": "uint256"
						}
					],
					"stateMutability": "view",
					"type": "function"
				},
				{
					"inputs": [],
					"name": "fund",
					"outputs": [],
					"stateMutability": "payable",
					"type": "function"
				},
				{
					"inputs": [
						{
							"internalType": "uint256",
							"name": "",
							"type": "uint256"
						}
					],
					"name": "funders",
					"outputs": [
						{
							"internalType": "address",
							"name": "",
							"type": "address"
						}
					],
					"stateMutability": "view",
					"type": "function"
				},
				{
					"inputs": [],
					"name": "minimumUsd",
					"outputs": [
						{
							"internalType": "uint256",
							"name": "",
							"type": "uint256"
						}
					],
					"stateMutability": "view",
					"type": "function"
				},
				{
					"inputs": [],
					"name": "withdraw",
					"outputs": [],
					"stateMutability": "nonpayable",
					"type": "function"
				}
			],
			"devdoc": {
				"kind": "dev",
				"methods": {},
				"version": 1
			},
			"evm": {
				"assembly": "    /* \"3-FundMe/FundMe.sol\":220:2756  contract FundMe {... */\n  mstore(0x40, 0x80)\n    /* \"3-FundMe/FundMe.sol\":309:313  5e18 */\n  0x4563918244f40000\n    /* \"3-FundMe/FundMe.sol\":281:313  uint256 public minimumUsd = 5e18 */\n  0x00\n  sstore\n    /* \"3-FundMe/FundMe.sol\":220:2756  contract FundMe {... */\n  callvalue\n  dup1\n  iszero\n  tag_1\n  jumpi\n  revert(0x00, 0x00)\ntag_1:\n  pop\n  dataSize(sub_0)\n  dup1\n  dataOffset(sub_0)\n  0x00\n  codecopy\n  0x00\n  return\nstop\n\nsub_0: assembly {\n        /* \"3-FundMe/FundMe.sol\":220:2756  contract FundMe {... */\n      mstore(0x40, 0x80)\n      jumpi(tag_1, lt(calldatasize, 0x04))\n      shr(0xe0, calldataload(0x00))\n      dup1\n      0x098de820\n      eq\n      tag_2\n      jumpi\n      dup1\n      0x3ccfd60b\n      eq\n      tag_3\n      jumpi\n      dup1\n      0x3e47d6f3\n      eq\n      tag_4\n      jumpi\n      dup1\n      0xb60d4288\n      eq\n      tag_5\n      jumpi\n      dup1\n      0xdc0d3dff\n      eq\n      tag_6\n      jumpi\n    tag_1:\n      revert(0x00, 0x00)\n        /* \"3-FundMe/FundMe.sol\":281:313  uint256 public minimumUsd = 5e18 */\n    tag_2:\n      callvalue\n      dup1\n      iszero\n      tag_7\n      jumpi\n      revert(0x00, 0x00)\n    tag_7:\n      pop\n      tag_8\n      tag_9\n      jump\t// in\n    tag_8:\n      mload(0x40)\n      tag_10\n      swap2\n      swap1\n      tag_11\n      jump\t// in\n    tag_10:\n      mload(0x40)\n      dup1\n      swap2\n      sub\n      swap1\n      return\n        /* \"3-FundMe/FundMe.sol\":1379:2754  function withdraw() public {... */\n    tag_3:\n      callvalue\n      dup1\n      iszero\n      tag_12\n      jumpi\n      revert(0x00, 0x00)\n    tag_12:\n      pop\n      tag_13\n      tag_14\n      jump\t// in\n    tag_13:\n      stop\n        /* \"3-FundMe/FundMe.sol\":422:498  mapping(address funder => uint256 amountFunded) public addressToAmountFunded */\n    tag_4:\n      callvalue\n      dup1\n      iszero\n      tag_15\n      jumpi\n      revert(0x00, 0x00)\n    tag_15:\n      pop\n      tag_16\n      0x04\n      dup1\n      calldatasize\n      sub\n      dup2\n      add\n      swap1\n      tag_17\n      swap2\n      swap1\n      tag_18\n      jump\t// in\n    tag_17:\n      tag_19\n      jump\t// in\n    tag_16:\n      mload(0x40)\n      tag_20\n      swap2\n      swap1\n      tag_11\n      jump\t// in\n    tag_20:\n      mload(0x40)\n      dup1\n      swap2\n      sub\n      swap1\n      return\n        /* \"3-FundMe/FundMe.sol\":509:1369  function fund() public payable {... */\n    tag_5:\n      tag_21\n      tag_22\n      jump\t// in\n    tag_21:\n      stop\n        /* \"3-FundMe/FundMe.sol\":392:416  address[] public funders */\n    tag_6:\n      callvalue\n      dup1\n      iszero\n      tag_23\n      jumpi\n      revert(0x00, 0x00)\n    tag_23:\n      pop\n      tag_24\n      0x04\n      dup1\n      calldatasize\n      sub\n      dup2\n      add\n      swap1\n      tag_25\n      swap2\n      swap1\n      tag_26\n      jump\t// in\n    tag_25:\n      tag_27\n      jump\t// in\n    tag_24:\n      mload(0x40)\n      tag_28\n      swap2\n      swap1\n      tag_29\n      jump\t// in\n    tag_28:\n      mload(0x40)\n      dup1\n      swap2\n      sub\n      swap1\n      return\n        /* \"3-FundMe/FundMe.sol\":281:313  uint256 public minimumUsd = 5e18 */\n    tag_9:\n      sload(0x00)\n      dup2\n      jump\t// out\n        /* \"3-FundMe/FundMe.sol\":1379:2754  function withdraw() public {... */\n    tag_14:\n        /* \"3-FundMe/FundMe.sol\":1506:1525  uint256 funderIndex */\n      0x00\n        /* \"3-FundMe/FundMe.sol\":1528:1529  0 */\n      0x00\n        /* \"3-FundMe/FundMe.sol\":1506:1529  uint256 funderIndex = 0 */\n      swap1\n      pop\n        /* \"3-FundMe/FundMe.sol\":1501:1760  for (uint256 funderIndex = 0; funderIndex < funders.length; funderIndex++) ... */\n    tag_31:\n        /* \"3-FundMe/FundMe.sol\":1545:1552  funders */\n      0x01\n        /* \"3-FundMe/FundMe.sol\":1545:1559  funders.length */\n      dup1\n      sload\n      swap1\n      pop\n        /* \"3-FundMe/FundMe.sol\":1531:1542  funderIndex */\n      dup2\n        /* \"3-FundMe/FundMe.sol\":1531:1559  funderIndex < funders.length */\n      lt\n        /* \"3-FundMe/FundMe.sol\":1501:1760  for (uint256 funderIndex = 0; funderIndex < funders.length; funderIndex++) ... */\n      iszero\n      tag_32\n      jumpi\n        /* \"3-FundMe/FundMe.sol\":1599:1613  address funder */\n      0x00\n        /* \"3-FundMe/FundMe.sol\":1616:1623  funders */\n      0x01\n        /* \"3-FundMe/FundMe.sol\":1624:1635  funderIndex */\n      dup3\n        /* \"3-FundMe/FundMe.sol\":1616:1636  funders[funderIndex] */\n      dup2\n      sload\n      dup2\n      lt\n      tag_34\n      jumpi\n      tag_35\n      tag_36\n      jump\t// in\n    tag_35:\n    tag_34:\n      swap1\n      0x00\n      mstore\n      keccak256(0x00, 0x20)\n      add\n      0x00\n      swap1\n      sload\n      swap1\n      0x0100\n      exp\n      swap1\n      div\n      0xffffffffffffffffffffffffffffffffffffffff\n      and\n        /* \"3-FundMe/FundMe.sol\":1599:1636  address funder = funders[funderIndex] */\n      swap1\n      pop\n        /* \"3-FundMe/FundMe.sol\":1682:1683  0 */\n      0x00\n        /* \"3-FundMe/FundMe.sol\":1650:1671  addressToAmountFunded */\n      0x02\n        /* \"3-FundMe/FundMe.sol\":1650:1679  addressToAmountFunded[funder] */\n      0x00\n        /* \"3-FundMe/FundMe.sol\":1672:1678  funder */\n      dup4\n        /* \"3-FundMe/FundMe.sol\":1650:1679  addressToAmountFunded[funder] */\n      0xffffffffffffffffffffffffffffffffffffffff\n      and\n      0xffffffffffffffffffffffffffffffffffffffff\n      and\n      dup2\n      mstore\n      0x20\n      add\n      swap1\n      dup2\n      mstore\n      0x20\n      add\n      0x00\n      keccak256\n        /* \"3-FundMe/FundMe.sol\":1650:1683  addressToAmountFunded[funder] = 0 */\n      dup2\n      swap1\n      sstore\n      pop\n        /* \"3-FundMe/FundMe.sol\":1585:1760  {... */\n      pop\n        /* \"3-FundMe/FundMe.sol\":1561:1574  funderIndex++ */\n      dup1\n      dup1\n      0x01\n      add\n      swap2\n      pop\n      pop\n        /* \"3-FundMe/FundMe.sol\":1501:1760  for (uint256 funderIndex = 0; funderIndex < funders.length; funderIndex++) ... */\n      jump(tag_31)\n    tag_32:\n      pop\n        /* \"3-FundMe/FundMe.sol\":1821:1822  0 */\n      0x00\n        /* \"3-FundMe/FundMe.sol\":1807:1823  new address[](0) */\n      0xffffffffffffffff\n      dup2\n      gt\n      iszero\n      tag_38\n      jumpi\n      tag_39\n      tag_40\n      jump\t// in\n    tag_39:\n    tag_38:\n      mload(0x40)\n      swap1\n      dup1\n      dup3\n      mstore\n      dup1\n      0x20\n      mul\n      0x20\n      add\n      dup3\n      add\n      0x40\n      mstore\n      dup1\n      iszero\n      tag_41\n      jumpi\n      dup2\n      0x20\n      add\n      0x20\n      dup3\n      mul\n      dup1\n      calldatasize\n      dup4\n      calldatacopy\n      dup1\n      dup3\n      add\n      swap2\n      pop\n      pop\n      swap1\n      pop\n    tag_41:\n      pop\n        /* \"3-FundMe/FundMe.sol\":1797:1804  funders */\n      0x01\n        /* \"3-FundMe/FundMe.sol\":1797:1823  funders = new address[](0) */\n      swap1\n      dup1\n      mload\n      swap1\n      0x20\n      add\n      swap1\n      tag_42\n      swap3\n      swap2\n      swap1\n      tag_43\n      jump\t// in\n    tag_42:\n      pop\n        /* \"3-FundMe/FundMe.sol\":2060:2070  msg.sender */\n      caller\n        /* \"3-FundMe/FundMe.sol\":2052:2080  payable(msg.sender).transfer */\n      0xffffffffffffffffffffffffffffffffffffffff\n      and\n        /* \"3-FundMe/FundMe.sol\":2052:2103  payable(msg.sender).transfer(address(this).balance) */\n      0x08fc\n        /* \"3-FundMe/FundMe.sol\":2081:2102  address(this).balance */\n      selfbalance\n        /* \"3-FundMe/FundMe.sol\":2052:2103  payable(msg.sender).transfer(address(this).balance) */\n      swap1\n      dup2\n      iszero\n      mul\n      swap1\n      mload(0x40)\n      0x00\n      mload(0x40)\n      dup1\n      dup4\n      sub\n      dup2\n      dup6\n      dup9\n      dup9\n      call\n      swap4\n      pop\n      pop\n      pop\n      pop\n      iszero\n      dup1\n      iszero\n      tag_45\n      jumpi\n      returndatacopy(0x00, 0x00, returndatasize)\n      revert(0x00, returndatasize)\n    tag_45:\n      pop\n        /* \"3-FundMe/FundMe.sol\":2224:2240  bool sendSuccess */\n      0x00\n        /* \"3-FundMe/FundMe.sol\":2251:2261  msg.sender */\n      caller\n        /* \"3-FundMe/FundMe.sol\":2243:2267  payable(msg.sender).send */\n      0xffffffffffffffffffffffffffffffffffffffff\n      and\n        /* \"3-FundMe/FundMe.sol\":2243:2290  payable(msg.sender).send(address(this).balance) */\n      0x08fc\n        /* \"3-FundMe/FundMe.sol\":2268:2289  address(this).balance */\n      selfbalance\n        /* \"3-FundMe/FundMe.sol\":2243:2290  payable(msg.sender).send(address(this).balance) */\n      swap1\n      dup2\n      iszero\n      mul\n      swap1\n      mload(0x40)\n      0x00\n      mload(0x40)\n      dup1\n      dup4\n      sub\n      dup2\n      dup6\n      dup9\n      dup9\n      call\n      swap4\n      pop\n      pop\n      pop\n      pop\n        /* \"3-FundMe/FundMe.sol\":2224:2290  bool sendSuccess = payable(msg.sender).send(address(this).balance) */\n      swap1\n      pop\n        /* \"3-FundMe/FundMe.sol\":2388:2399  sendSuccess */\n      dup1\n        /* \"3-FundMe/FundMe.sol\":2380:2415  require(sendSuccess, \"Send failed\") */\n      tag_47\n      jumpi\n      mload(0x40)\n      0x08c379a000000000000000000000000000000000000000000000000000000000\n      dup2\n      mstore\n      0x04\n      add\n      tag_48\n      swap1\n      tag_49\n      jump\t// in\n    tag_48:\n      mload(0x40)\n      dup1\n      swap2\n      sub\n      swap1\n      revert\n    tag_47:\n        /* \"3-FundMe/FundMe.sol\":2622:2638  bool callSuccess */\n      0x00\n        /* \"3-FundMe/FundMe.sol\":2652:2662  msg.sender */\n      caller\n        /* \"3-FundMe/FundMe.sol\":2644:2668  payable(msg.sender).call */\n      0xffffffffffffffffffffffffffffffffffffffff\n      and\n        /* \"3-FundMe/FundMe.sol\":2676:2697  address(this).balance */\n      selfbalance\n        /* \"3-FundMe/FundMe.sol\":2644:2702  payable(msg.sender).call{value: address(this).balance}(\"\") */\n      mload(0x40)\n      tag_50\n      swap1\n      tag_51\n      jump\t// in\n    tag_50:\n      0x00\n      mload(0x40)\n      dup1\n      dup4\n      sub\n      dup2\n      dup6\n      dup8\n      gas\n      call\n      swap3\n      pop\n      pop\n      pop\n      returndatasize\n      dup1\n      0x00\n      dup2\n      eq\n      tag_54\n      jumpi\n      mload(0x40)\n      swap2\n      pop\n      and(add(returndatasize, 0x3f), not(0x1f))\n      dup3\n      add\n      0x40\n      mstore\n      returndatasize\n      dup3\n      mstore\n      returndatasize\n      0x00\n      0x20\n      dup5\n      add\n      returndatacopy\n      jump(tag_53)\n    tag_54:\n      0x60\n      swap2\n      pop\n    tag_53:\n      pop\n        /* \"3-FundMe/FundMe.sol\":2621:2702  (bool callSuccess, ) = payable(msg.sender).call{value: address(this).balance}(\"\") */\n      pop\n      swap1\n      pop\n        /* \"3-FundMe/FundMe.sol\":2720:2731  callSuccess */\n      dup1\n        /* \"3-FundMe/FundMe.sol\":2712:2747  require(callSuccess, \"Call failed\") */\n      tag_55\n      jumpi\n      mload(0x40)\n      0x08c379a000000000000000000000000000000000000000000000000000000000\n      dup2\n      mstore\n      0x04\n      add\n      tag_56\n      swap1\n      tag_57\n      jump\t// in\n    tag_56:\n      mload(0x40)\n      dup1\n      swap2\n      sub\n      swap1\n      revert\n    tag_55:\n        /* \"3-FundMe/FundMe.sol\":1406:2754  {... */\n      pop\n      pop\n        /* \"3-FundMe/FundMe.sol\":1379:2754  function withdraw() public {... */\n      jump\t// out\n        /* \"3-FundMe/FundMe.sol\":422:498  mapping(address funder => uint256 amountFunded) public addressToAmountFunded */\n    tag_19:\n      mstore(0x20, 0x02)\n      dup1\n      0x00\n      mstore\n      keccak256(0x00, 0x40)\n      0x00\n      swap2\n      pop\n      swap1\n      pop\n      sload\n      dup2\n      jump\t// out\n        /* \"3-FundMe/FundMe.sol\":509:1369  function fund() public payable {... */\n    tag_22:\n        /* \"3-FundMe/FundMe.sol\":850:859  msg.value */\n      callvalue\n        /* \"3-FundMe/FundMe.sol\":850:877  msg.value.getConversionRate */\n      linkerSymbol(\"b783afe118d26d4eca8a8448152f83860c4eda03853e137831f59263dc20f131\")\n      0x6e5b6b28\n      swap1\n      swap2\n        /* \"3-FundMe/FundMe.sol\":850:879  msg.value.getConversionRate() */\n      mload(0x40)\n      dup3\n      0xffffffff\n      and\n      0xe0\n      shl\n      dup2\n      mstore\n      0x04\n      add\n      tag_59\n      swap2\n      swap1\n      tag_60\n      jump\t// in\n    tag_59:\n      0x20\n      mload(0x40)\n      dup1\n      dup4\n      sub\n      dup2\n      dup7\n      gas\n      delegatecall\n      iszero\n      dup1\n      iszero\n      tag_62\n      jumpi\n      returndatacopy(0x00, 0x00, returndatasize)\n      revert(0x00, returndatasize)\n    tag_62:\n      pop\n      pop\n      pop\n      pop\n      mload(0x40)\n      returndatasize\n      not(0x1f)\n      0x1f\n      dup3\n      add\n      and\n      dup3\n      add\n      dup1\n      0x40\n      mstore\n      pop\n      dup2\n      add\n      swap1\n      tag_63\n      swap2\n      swap1\n      tag_64\n      jump\t// in\n    tag_63:\n      pop\n        /* \"3-FundMe/FundMe.sol\":988:998  minimumUsd */\n      sload(0x00)\n        /* \"3-FundMe/FundMe.sol\":955:964  msg.value */\n      callvalue\n        /* \"3-FundMe/FundMe.sol\":955:982  msg.value.getConversionRate */\n      linkerSymbol(\"b783afe118d26d4eca8a8448152f83860c4eda03853e137831f59263dc20f131\")\n      0x6e5b6b28\n      swap1\n      swap2\n        /* \"3-FundMe/FundMe.sol\":955:984  msg.value.getConversionRate() */\n      mload(0x40)\n      dup3\n      0xffffffff\n      and\n      0xe0\n      shl\n      dup2\n      mstore\n      0x04\n      add\n      tag_65\n      swap2\n      swap1\n      tag_60\n      jump\t// in\n    tag_65:\n      0x20\n      mload(0x40)\n      dup1\n      dup4\n      sub\n      dup2\n      dup7\n      gas\n      delegatecall\n      iszero\n      dup1\n      iszero\n      tag_67\n      jumpi\n      returndatacopy(0x00, 0x00, returndatasize)\n      revert(0x00, returndatasize)\n    tag_67:\n      pop\n      pop\n      pop\n      pop\n      mload(0x40)\n      returndatasize\n      not(0x1f)\n      0x1f\n      dup3\n      add\n      and\n      dup3\n      add\n      dup1\n      0x40\n      mstore\n      pop\n      dup2\n      add\n      swap1\n      tag_68\n      swap2\n      swap1\n      tag_64\n      jump\t// in\n    tag_68:\n        /* \"3-FundMe/FundMe.sol\":955:998  msg.value.getConversionRate() >= minimumUsd */\n      lt\n      iszero\n        /* \"3-FundMe/FundMe.sol\":947:1026  require(msg.value.getConversionRate() >= minimumUsd, \"didn't send enought ETH\") */\n      tag_69\n      jumpi\n      mload(0x40)\n      0x08c379a000000000000000000000000000000000000000000000000000000000\n      dup2\n      mstore\n      0x04\n      add\n      tag_70\n      swap1\n      tag_71\n      jump\t// in\n    tag_70:\n      mload(0x40)\n      dup1\n      swap2\n      sub\n      swap1\n      revert\n    tag_69:\n        /* \"3-FundMe/FundMe.sol\":1036:1043  funders */\n      0x01\n        /* \"3-FundMe/FundMe.sol\":1049:1059  msg.sender */\n      caller\n        /* \"3-FundMe/FundMe.sol\":1036:1060  funders.push(msg.sender) */\n      swap1\n      dup1\n      0x01\n      dup2\n      sload\n      add\n      dup1\n      dup3\n      sstore\n      dup1\n      swap2\n      pop\n      pop\n      0x01\n      swap1\n      sub\n      swap1\n      0x00\n      mstore\n      keccak256(0x00, 0x20)\n      add\n      0x00\n      swap1\n      swap2\n      swap1\n      swap2\n      swap1\n      swap2\n      0x0100\n      exp\n      dup2\n      sload\n      dup2\n      0xffffffffffffffffffffffffffffffffffffffff\n      mul\n      not\n      and\n      swap1\n      dup4\n      0xffffffffffffffffffffffffffffffffffffffff\n      and\n      mul\n      or\n      swap1\n      sstore\n      pop\n        /* \"3-FundMe/FundMe.sol\":1150:1159  msg.value */\n      callvalue\n        /* \"3-FundMe/FundMe.sol\":1113:1134  addressToAmountFunded */\n      0x02\n        /* \"3-FundMe/FundMe.sol\":1113:1146  addressToAmountFunded[msg.sender] */\n      0x00\n        /* \"3-FundMe/FundMe.sol\":1135:1145  msg.sender */\n      caller\n        /* \"3-FundMe/FundMe.sol\":1113:1146  addressToAmountFunded[msg.sender] */\n      0xffffffffffffffffffffffffffffffffffffffff\n      and\n      0xffffffffffffffffffffffffffffffffffffffff\n      and\n      dup2\n      mstore\n      0x20\n      add\n      swap1\n      dup2\n      mstore\n      0x20\n      add\n      0x00\n      keccak256\n      0x00\n        /* \"3-FundMe/FundMe.sol\":1113:1159  addressToAmountFunded[msg.sender] += msg.value */\n      dup3\n      dup3\n      sload\n      tag_73\n      swap2\n      swap1\n      tag_74\n      jump\t// in\n    tag_73:\n      swap3\n      pop\n      pop\n      dup2\n      swap1\n      sstore\n      pop\n        /* \"3-FundMe/FundMe.sol\":509:1369  function fund() public payable {... */\n      jump\t// out\n        /* \"3-FundMe/FundMe.sol\":392:416  address[] public funders */\n    tag_27:\n      0x01\n      dup2\n      dup2\n      sload\n      dup2\n      lt\n      tag_75\n      jumpi\n      0x00\n      dup1\n      revert\n    tag_75:\n      swap1\n      0x00\n      mstore\n      keccak256(0x00, 0x20)\n      add\n      0x00\n      swap2\n      pop\n      sload\n      swap1\n      0x0100\n      exp\n      swap1\n      div\n      0xffffffffffffffffffffffffffffffffffffffff\n      and\n      dup2\n      jump\t// out\n    tag_43:\n      dup3\n      dup1\n      sload\n      dup3\n      dup3\n      sstore\n      swap1\n      0x00\n      mstore\n      keccak256(0x00, 0x20)\n      swap1\n      dup2\n      add\n      swap3\n      dup3\n      iszero\n      tag_77\n      jumpi\n      swap2\n      0x20\n      mul\n      dup3\n      add\n    tag_78:\n      dup3\n      dup2\n      gt\n      iszero\n      tag_79\n      jumpi\n      dup3\n      mload\n      dup3\n      exp(0x0100, 0x00)\n      dup2\n      sload\n      dup2\n      0xffffffffffffffffffffffffffffffffffffffff\n      mul\n      not\n      and\n      swap1\n      dup4\n      0xffffffffffffffffffffffffffffffffffffffff\n      and\n      mul\n      or\n      swap1\n      sstore\n      pop\n      swap2\n      0x20\n      add\n      swap2\n      swap1\n      0x01\n      add\n      swap1\n      jump(tag_78)\n    tag_79:\n    tag_77:\n      pop\n      swap1\n      pop\n      tag_80\n      swap2\n      swap1\n      tag_81\n      jump\t// in\n    tag_80:\n      pop\n      swap1\n      jump\t// out\n    tag_81:\n    tag_82:\n      dup1\n      dup3\n      gt\n      iszero\n      tag_83\n      jumpi\n      0x00\n      dup2\n      0x00\n      swap1\n      sstore\n      pop\n      0x01\n      add\n      jump(tag_82)\n    tag_83:\n      pop\n      swap1\n      jump\t// out\n        /* \"#utility.yul\":7:84   */\n    tag_84:\n        /* \"#utility.yul\":44:51   */\n      0x00\n        /* \"#utility.yul\":73:78   */\n      dup2\n        /* \"#utility.yul\":62:78   */\n      swap1\n      pop\n        /* \"#utility.yul\":7:84   */\n      swap2\n      swap1\n      pop\n      jump\t// out\n        /* \"#utility.yul\":90:208   */\n    tag_85:\n        /* \"#utility.yul\":177:201   */\n      tag_112\n        /* \"#utility.yul\":195:200   */\n      dup2\n        /* \"#utility.yul\":177:201   */\n      tag_84\n      jump\t// in\n    tag_112:\n        /* \"#utility.yul\":172:175   */\n      dup3\n        /* \"#utility.yul\":165:202   */\n      mstore\n        /* \"#utility.yul\":90:208   */\n      pop\n      pop\n      jump\t// out\n        /* \"#utility.yul\":214:436   */\n    tag_11:\n        /* \"#utility.yul\":307:311   */\n      0x00\n        /* \"#utility.yul\":345:347   */\n      0x20\n        /* \"#utility.yul\":334:343   */\n      dup3\n        /* \"#utility.yul\":330:348   */\n      add\n        /* \"#utility.yul\":322:348   */\n      swap1\n      pop\n        /* \"#utility.yul\":358:429   */\n      tag_114\n        /* \"#utility.yul\":426:427   */\n      0x00\n        /* \"#utility.yul\":415:424   */\n      dup4\n        /* \"#utility.yul\":411:428   */\n      add\n        /* \"#utility.yul\":402:408   */\n      dup5\n        /* \"#utility.yul\":358:429   */\n      tag_85\n      jump\t// in\n    tag_114:\n        /* \"#utility.yul\":214:436   */\n      swap3\n      swap2\n      pop\n      pop\n      jump\t// out\n        /* \"#utility.yul\":523:640   */\n    tag_87:\n        /* \"#utility.yul\":632:633   */\n      0x00\n        /* \"#utility.yul\":629:630   */\n      0x00\n        /* \"#utility.yul\":622:634   */\n      revert\n        /* \"#utility.yul\":769:895   */\n    tag_89:\n        /* \"#utility.yul\":806:813   */\n      0x00\n        /* \"#utility.yul\":846:888   */\n      0xffffffffffffffffffffffffffffffffffffffff\n        /* \"#utility.yul\":839:844   */\n      dup3\n        /* \"#utility.yul\":835:889   */\n      and\n        /* \"#utility.yul\":824:889   */\n      swap1\n      pop\n        /* \"#utility.yul\":769:895   */\n      swap2\n      swap1\n      pop\n      jump\t// out\n        /* \"#utility.yul\":901:997   */\n    tag_90:\n        /* \"#utility.yul\":938:945   */\n      0x00\n        /* \"#utility.yul\":967:991   */\n      tag_120\n        /* \"#utility.yul\":985:990   */\n      dup3\n        /* \"#utility.yul\":967:991   */\n      tag_89\n      jump\t// in\n    tag_120:\n        /* \"#utility.yul\":956:991   */\n      swap1\n      pop\n        /* \"#utility.yul\":901:997   */\n      swap2\n      swap1\n      pop\n      jump\t// out\n        /* \"#utility.yul\":1003:1125   */\n    tag_91:\n        /* \"#utility.yul\":1076:1100   */\n      tag_122\n        /* \"#utility.yul\":1094:1099   */\n      dup2\n        /* \"#utility.yul\":1076:1100   */\n      tag_90\n      jump\t// in\n    tag_122:\n        /* \"#utility.yul\":1069:1074   */\n      dup2\n        /* \"#utility.yul\":1066:1101   */\n      eq\n        /* \"#utility.yul\":1056:1119   */\n      tag_123\n      jumpi\n        /* \"#utility.yul\":1115:1116   */\n      0x00\n        /* \"#utility.yul\":1112:1113   */\n      0x00\n        /* \"#utility.yul\":1105:1117   */\n      revert\n        /* \"#utility.yul\":1056:1119   */\n    tag_123:\n        /* \"#utility.yul\":1003:1125   */\n      pop\n      jump\t// out\n        /* \"#utility.yul\":1131:1270   */\n    tag_92:\n        /* \"#utility.yul\":1177:1182   */\n      0x00\n        /* \"#utility.yul\":1215:1221   */\n      dup2\n        /* \"#utility.yul\":1202:1222   */\n      calldataload\n        /* \"#utility.yul\":1193:1222   */\n      swap1\n      pop\n        /* \"#utility.yul\":1231:1264   */\n      tag_125\n        /* \"#utility.yul\":1258:1263   */\n      dup2\n        /* \"#utility.yul\":1231:1264   */\n      tag_91\n      jump\t// in\n    tag_125:\n        /* \"#utility.yul\":1131:1270   */\n      swap3\n      swap2\n      pop\n      pop\n      jump\t// out\n        /* \"#utility.yul\":1276:1605   */\n    tag_18:\n        /* \"#utility.yul\":1335:1341   */\n      0x00\n        /* \"#utility.yul\":1384:1386   */\n      0x20\n        /* \"#utility.yul\":1372:1381   */\n      dup3\n        /* \"#utility.yul\":1363:1370   */\n      dup5\n        /* \"#utility.yul\":1359:1382   */\n      sub\n        /* \"#utility.yul\":1355:1387   */\n      slt\n        /* \"#utility.yul\":1352:1471   */\n      iszero\n      tag_127\n      jumpi\n        /* \"#utility.yul\":1390:1469   */\n      tag_128\n      tag_87\n      jump\t// in\n    tag_128:\n        /* \"#utility.yul\":1352:1471   */\n    tag_127:\n        /* \"#utility.yul\":1510:1511   */\n      0x00\n        /* \"#utility.yul\":1535:1588   */\n      tag_129\n        /* \"#utility.yul\":1580:1587   */\n      dup5\n        /* \"#utility.yul\":1571:1577   */\n      dup3\n        /* \"#utility.yul\":1560:1569   */\n      dup6\n        /* \"#utility.yul\":1556:1578   */\n      add\n        /* \"#utility.yul\":1535:1588   */\n      tag_92\n      jump\t// in\n    tag_129:\n        /* \"#utility.yul\":1525:1588   */\n      swap2\n      pop\n        /* \"#utility.yul\":1481:1598   */\n      pop\n        /* \"#utility.yul\":1276:1605   */\n      swap3\n      swap2\n      pop\n      pop\n      jump\t// out\n        /* \"#utility.yul\":1611:1733   */\n    tag_93:\n        /* \"#utility.yul\":1684:1708   */\n      tag_131\n        /* \"#utility.yul\":1702:1707   */\n      dup2\n        /* \"#utility.yul\":1684:1708   */\n      tag_84\n      jump\t// in\n    tag_131:\n        /* \"#utility.yul\":1677:1682   */\n      dup2\n        /* \"#utility.yul\":1674:1709   */\n      eq\n        /* \"#utility.yul\":1664:1727   */\n      tag_132\n      jumpi\n        /* \"#utility.yul\":1723:1724   */\n      0x00\n        /* \"#utility.yul\":1720:1721   */\n      0x00\n        /* \"#utility.yul\":1713:1725   */\n      revert\n        /* \"#utility.yul\":1664:1727   */\n    tag_132:\n        /* \"#utility.yul\":1611:1733   */\n      pop\n      jump\t// out\n        /* \"#utility.yul\":1739:1878   */\n    tag_94:\n        /* \"#utility.yul\":1785:1790   */\n      0x00\n        /* \"#utility.yul\":1823:1829   */\n      dup2\n        /* \"#utility.yul\":1810:1830   */\n      calldataload\n        /* \"#utility.yul\":1801:1830   */\n      swap1\n      pop\n        /* \"#utility.yul\":1839:1872   */\n      tag_134\n        /* \"#utility.yul\":1866:1871   */\n      dup2\n        /* \"#utility.yul\":1839:1872   */\n      tag_93\n      jump\t// in\n    tag_134:\n        /* \"#utility.yul\":1739:1878   */\n      swap3\n      swap2\n      pop\n      pop\n      jump\t// out\n        /* \"#utility.yul\":1884:2213   */\n    tag_26:\n        /* \"#utility.yul\":1943:1949   */\n      0x00\n        /* \"#utility.yul\":1992:1994   */\n      0x20\n        /* \"#utility.yul\":1980:1989   */\n      dup3\n        /* \"#utility.yul\":1971:1978   */\n      dup5\n        /* \"#utility.yul\":1967:1990   */\n      sub\n        /* \"#utility.yul\":1963:1995   */\n      slt\n        /* \"#utility.yul\":1960:2079   */\n      iszero\n      tag_136\n      jumpi\n        /* \"#utility.yul\":1998:2077   */\n      tag_137\n      tag_87\n      jump\t// in\n    tag_137:\n        /* \"#utility.yul\":1960:2079   */\n    tag_136:\n        /* \"#utility.yul\":2118:2119   */\n      0x00\n        /* \"#utility.yul\":2143:2196   */\n      tag_138\n        /* \"#utility.yul\":2188:2195   */\n      dup5\n        /* \"#utility.yul\":2179:2185   */\n      dup3\n        /* \"#utility.yul\":2168:2177   */\n      dup6\n        /* \"#utility.yul\":2164:2186   */\n      add\n        /* \"#utility.yul\":2143:2196   */\n      tag_94\n      jump\t// in\n    tag_138:\n        /* \"#utility.yul\":2133:2196   */\n      swap2\n      pop\n        /* \"#utility.yul\":2089:2206   */\n      pop\n        /* \"#utility.yul\":1884:2213   */\n      swap3\n      swap2\n      pop\n      pop\n      jump\t// out\n        /* \"#utility.yul\":2219:2337   */\n    tag_95:\n        /* \"#utility.yul\":2306:2330   */\n      tag_140\n        /* \"#utility.yul\":2324:2329   */\n      dup2\n        /* \"#utility.yul\":2306:2330   */\n      tag_90\n      jump\t// in\n    tag_140:\n        /* \"#utility.yul\":2301:2304   */\n      dup3\n        /* \"#utility.yul\":2294:2331   */\n      mstore\n        /* \"#utility.yul\":2219:2337   */\n      pop\n      pop\n      jump\t// out\n        /* \"#utility.yul\":2343:2565   */\n    tag_29:\n        /* \"#utility.yul\":2436:2440   */\n      0x00\n        /* \"#utility.yul\":2474:2476   */\n      0x20\n        /* \"#utility.yul\":2463:2472   */\n      dup3\n        /* \"#utility.yul\":2459:2477   */\n      add\n        /* \"#utility.yul\":2451:2477   */\n      swap1\n      pop\n        /* \"#utility.yul\":2487:2558   */\n      tag_142\n        /* \"#utility.yul\":2555:2556   */\n      0x00\n        /* \"#utility.yul\":2544:2553   */\n      dup4\n        /* \"#utility.yul\":2540:2557   */\n      add\n        /* \"#utility.yul\":2531:2537   */\n      dup5\n        /* \"#utility.yul\":2487:2558   */\n      tag_95\n      jump\t// in\n    tag_142:\n        /* \"#utility.yul\":2343:2565   */\n      swap3\n      swap2\n      pop\n      pop\n      jump\t// out\n        /* \"#utility.yul\":2571:2751   */\n    tag_36:\n        /* \"#utility.yul\":2619:2696   */\n      0x4e487b7100000000000000000000000000000000000000000000000000000000\n        /* \"#utility.yul\":2616:2617   */\n      0x00\n        /* \"#utility.yul\":2609:2697   */\n      mstore\n        /* \"#utility.yul\":2716:2720   */\n      0x32\n        /* \"#utility.yul\":2713:2714   */\n      0x04\n        /* \"#utility.yul\":2706:2721   */\n      mstore\n        /* \"#utility.yul\":2740:2744   */\n      0x24\n        /* \"#utility.yul\":2737:2738   */\n      0x00\n        /* \"#utility.yul\":2730:2745   */\n      revert\n        /* \"#utility.yul\":2757:2937   */\n    tag_40:\n        /* \"#utility.yul\":2805:2882   */\n      0x4e487b7100000000000000000000000000000000000000000000000000000000\n        /* \"#utility.yul\":2802:2803   */\n      0x00\n        /* \"#utility.yul\":2795:2883   */\n      mstore\n        /* \"#utility.yul\":2902:2906   */\n      0x41\n        /* \"#utility.yul\":2899:2900   */\n      0x04\n        /* \"#utility.yul\":2892:2907   */\n      mstore\n        /* \"#utility.yul\":2926:2930   */\n      0x24\n        /* \"#utility.yul\":2923:2924   */\n      0x00\n        /* \"#utility.yul\":2916:2931   */\n      revert\n        /* \"#utility.yul\":2943:3112   */\n    tag_96:\n        /* \"#utility.yul\":3027:3038   */\n      0x00\n        /* \"#utility.yul\":3061:3067   */\n      dup3\n        /* \"#utility.yul\":3056:3059   */\n      dup3\n        /* \"#utility.yul\":3049:3068   */\n      mstore\n        /* \"#utility.yul\":3101:3105   */\n      0x20\n        /* \"#utility.yul\":3096:3099   */\n      dup3\n        /* \"#utility.yul\":3092:3106   */\n      add\n        /* \"#utility.yul\":3077:3106   */\n      swap1\n      pop\n        /* \"#utility.yul\":2943:3112   */\n      swap3\n      swap2\n      pop\n      pop\n      jump\t// out\n        /* \"#utility.yul\":3118:3279   */\n    tag_97:\n        /* \"#utility.yul\":3258:3271   */\n      0x53656e64206661696c6564000000000000000000000000000000000000000000\n        /* \"#utility.yul\":3254:3255   */\n      0x00\n        /* \"#utility.yul\":3246:3252   */\n      dup3\n        /* \"#utility.yul\":3242:3256   */\n      add\n        /* \"#utility.yul\":3235:3272   */\n      mstore\n        /* \"#utility.yul\":3118:3279   */\n      pop\n      jump\t// out\n        /* \"#utility.yul\":3285:3651   */\n    tag_98:\n        /* \"#utility.yul\":3427:3430   */\n      0x00\n        /* \"#utility.yul\":3448:3515   */\n      tag_148\n        /* \"#utility.yul\":3512:3514   */\n      0x0b\n        /* \"#utility.yul\":3507:3510   */\n      dup4\n        /* \"#utility.yul\":3448:3515   */\n      tag_96\n      jump\t// in\n    tag_148:\n        /* \"#utility.yul\":3441:3515   */\n      swap2\n      pop\n        /* \"#utility.yul\":3524:3617   */\n      tag_149\n        /* \"#utility.yul\":3613:3616   */\n      dup3\n        /* \"#utility.yul\":3524:3617   */\n      tag_97\n      jump\t// in\n    tag_149:\n        /* \"#utility.yul\":3642:3644   */\n      0x20\n        /* \"#utility.yul\":3637:3640   */\n      dup3\n        /* \"#utility.yul\":3633:3645   */\n      add\n        /* \"#utility.yul\":3626:3645   */\n      swap1\n      pop\n        /* \"#utility.yul\":3285:3651   */\n      swap2\n      swap1\n      pop\n      jump\t// out\n        /* \"#utility.yul\":3657:4076   */\n    tag_49:\n        /* \"#utility.yul\":3823:3827   */\n      0x00\n        /* \"#utility.yul\":3861:3863   */\n      0x20\n        /* \"#utility.yul\":3850:3859   */\n      dup3\n        /* \"#utility.yul\":3846:3864   */\n      add\n        /* \"#utility.yul\":3838:3864   */\n      swap1\n      pop\n        /* \"#utility.yul\":3910:3919   */\n      dup2\n        /* \"#utility.yul\":3904:3908   */\n      dup2\n        /* \"#utility.yul\":3900:3920   */\n      sub\n        /* \"#utility.yul\":3896:3897   */\n      0x00\n        /* \"#utility.yul\":3885:3894   */\n      dup4\n        /* \"#utility.yul\":3881:3898   */\n      add\n        /* \"#utility.yul\":3874:3921   */\n      mstore\n        /* \"#utility.yul\":3938:4069   */\n      tag_151\n        /* \"#utility.yul\":4064:4068   */\n      dup2\n        /* \"#utility.yul\":3938:4069   */\n      tag_98\n      jump\t// in\n    tag_151:\n        /* \"#utility.yul\":3930:4069   */\n      swap1\n      pop\n        /* \"#utility.yul\":3657:4076   */\n      swap2\n      swap1\n      pop\n      jump\t// out\n        /* \"#utility.yul\":4082:4229   */\n    tag_99:\n        /* \"#utility.yul\":4183:4194   */\n      0x00\n        /* \"#utility.yul\":4220:4223   */\n      dup2\n        /* \"#utility.yul\":4205:4223   */\n      swap1\n      pop\n        /* \"#utility.yul\":4082:4229   */\n      swap3\n      swap2\n      pop\n      pop\n      jump\t// out\n        /* \"#utility.yul\":4235:4349   */\n    tag_100:\n      pop\n      jump\t// out\n        /* \"#utility.yul\":4355:4753   */\n    tag_101:\n        /* \"#utility.yul\":4514:4517   */\n      0x00\n        /* \"#utility.yul\":4535:4618   */\n      tag_155\n        /* \"#utility.yul\":4616:4617   */\n      0x00\n        /* \"#utility.yul\":4611:4614   */\n      dup4\n        /* \"#utility.yul\":4535:4618   */\n      tag_99\n      jump\t// in\n    tag_155:\n        /* \"#utility.yul\":4528:4618   */\n      swap2\n      pop\n        /* \"#utility.yul\":4627:4720   */\n      tag_156\n        /* \"#utility.yul\":4716:4719   */\n      dup3\n        /* \"#utility.yul\":4627:4720   */\n      tag_100\n      jump\t// in\n    tag_156:\n        /* \"#utility.yul\":4745:4746   */\n      0x00\n        /* \"#utility.yul\":4740:4743   */\n      dup3\n        /* \"#utility.yul\":4736:4747   */\n      add\n        /* \"#utility.yul\":4729:4747   */\n      swap1\n      pop\n        /* \"#utility.yul\":4355:4753   */\n      swap2\n      swap1\n      pop\n      jump\t// out\n        /* \"#utility.yul\":4759:5138   */\n    tag_51:\n        /* \"#utility.yul\":4943:4946   */\n      0x00\n        /* \"#utility.yul\":4965:5112   */\n      tag_158\n        /* \"#utility.yul\":5108:5111   */\n      dup3\n        /* \"#utility.yul\":4965:5112   */\n      tag_101\n      jump\t// in\n    tag_158:\n        /* \"#utility.yul\":4958:5112   */\n      swap2\n      pop\n        /* \"#utility.yul\":5129:5132   */\n      dup2\n        /* \"#utility.yul\":5122:5132   */\n      swap1\n      pop\n        /* \"#utility.yul\":4759:5138   */\n      swap2\n      swap1\n      pop\n      jump\t// out\n        /* \"#utility.yul\":5144:5305   */\n    tag_102:\n        /* \"#utility.yul\":5284:5297   */\n      0x43616c6c206661696c6564000000000000000000000000000000000000000000\n        /* \"#utility.yul\":5280:5281   */\n      0x00\n        /* \"#utility.yul\":5272:5278   */\n      dup3\n        /* \"#utility.yul\":5268:5282   */\n      add\n        /* \"#utility.yul\":5261:5298   */\n      mstore\n        /* \"#utility.yul\":5144:5305   */\n      pop\n      jump\t// out\n        /* \"#utility.yul\":5311:5677   */\n    tag_103:\n        /* \"#utility.yul\":5453:5456   */\n      0x00\n        /* \"#utility.yul\":5474:5541   */\n      tag_161\n        /* \"#utility.yul\":5538:5540   */\n      0x0b\n        /* \"#utility.yul\":5533:5536   */\n      dup4\n        /* \"#utility.yul\":5474:5541   */\n      tag_96\n      jump\t// in\n    tag_161:\n        /* \"#utility.yul\":5467:5541   */\n      swap2\n      pop\n        /* \"#utility.yul\":5550:5643   */\n      tag_162\n        /* \"#utility.yul\":5639:5642   */\n      dup3\n        /* \"#utility.yul\":5550:5643   */\n      tag_102\n      jump\t// in\n    tag_162:\n        /* \"#utility.yul\":5668:5670   */\n      0x20\n        /* \"#utility.yul\":5663:5666   */\n      dup3\n        /* \"#utility.yul\":5659:5671   */\n      add\n        /* \"#utility.yul\":5652:5671   */\n      swap1\n      pop\n        /* \"#utility.yul\":5311:5677   */\n      swap2\n      swap1\n      pop\n      jump\t// out\n        /* \"#utility.yul\":5683:6102   */\n    tag_57:\n        /* \"#utility.yul\":5849:5853   */\n      0x00\n        /* \"#utility.yul\":5887:5889   */\n      0x20\n        /* \"#utility.yul\":5876:5885   */\n      dup3\n        /* \"#utility.yul\":5872:5890   */\n      add\n        /* \"#utility.yul\":5864:5890   */\n      swap1\n      pop\n        /* \"#utility.yul\":5936:5945   */\n      dup2\n        /* \"#utility.yul\":5930:5934   */\n      dup2\n        /* \"#utility.yul\":5926:5946   */\n      sub\n        /* \"#utility.yul\":5922:5923   */\n      0x00\n        /* \"#utility.yul\":5911:5920   */\n      dup4\n        /* \"#utility.yul\":5907:5924   */\n      add\n        /* \"#utility.yul\":5900:5947   */\n      mstore\n        /* \"#utility.yul\":5964:6095   */\n      tag_164\n        /* \"#utility.yul\":6090:6094   */\n      dup2\n        /* \"#utility.yul\":5964:6095   */\n      tag_103\n      jump\t// in\n    tag_164:\n        /* \"#utility.yul\":5956:6095   */\n      swap1\n      pop\n        /* \"#utility.yul\":5683:6102   */\n      swap2\n      swap1\n      pop\n      jump\t// out\n        /* \"#utility.yul\":6108:6234   */\n    tag_104:\n        /* \"#utility.yul\":6203:6227   */\n      tag_166\n        /* \"#utility.yul\":6221:6226   */\n      dup2\n        /* \"#utility.yul\":6203:6227   */\n      tag_84\n      jump\t// in\n    tag_166:\n        /* \"#utility.yul\":6198:6201   */\n      dup3\n        /* \"#utility.yul\":6191:6228   */\n      mstore\n        /* \"#utility.yul\":6108:6234   */\n      pop\n      pop\n      jump\t// out\n        /* \"#utility.yul\":6240:6478   */\n    tag_60:\n        /* \"#utility.yul\":6341:6345   */\n      0x00\n        /* \"#utility.yul\":6379:6381   */\n      0x20\n        /* \"#utility.yul\":6368:6377   */\n      dup3\n        /* \"#utility.yul\":6364:6382   */\n      add\n        /* \"#utility.yul\":6356:6382   */\n      swap1\n      pop\n        /* \"#utility.yul\":6392:6471   */\n      tag_168\n        /* \"#utility.yul\":6468:6469   */\n      0x00\n        /* \"#utility.yul\":6457:6466   */\n      dup4\n        /* \"#utility.yul\":6453:6470   */\n      add\n        /* \"#utility.yul\":6444:6450   */\n      dup5\n        /* \"#utility.yul\":6392:6471   */\n      tag_104\n      jump\t// in\n    tag_168:\n        /* \"#utility.yul\":6240:6478   */\n      swap3\n      swap2\n      pop\n      pop\n      jump\t// out\n        /* \"#utility.yul\":6484:6627   */\n    tag_105:\n        /* \"#utility.yul\":6541:6546   */\n      0x00\n        /* \"#utility.yul\":6572:6578   */\n      dup2\n        /* \"#utility.yul\":6566:6579   */\n      mload\n        /* \"#utility.yul\":6557:6579   */\n      swap1\n      pop\n        /* \"#utility.yul\":6588:6621   */\n      tag_170\n        /* \"#utility.yul\":6615:6620   */\n      dup2\n        /* \"#utility.yul\":6588:6621   */\n      tag_93\n      jump\t// in\n    tag_170:\n        /* \"#utility.yul\":6484:6627   */\n      swap3\n      swap2\n      pop\n      pop\n      jump\t// out\n        /* \"#utility.yul\":6633:6984   */\n    tag_64:\n        /* \"#utility.yul\":6703:6709   */\n      0x00\n        /* \"#utility.yul\":6752:6754   */\n      0x20\n        /* \"#utility.yul\":6740:6749   */\n      dup3\n        /* \"#utility.yul\":6731:6738   */\n      dup5\n        /* \"#utility.yul\":6727:6750   */\n      sub\n        /* \"#utility.yul\":6723:6755   */\n      slt\n        /* \"#utility.yul\":6720:6839   */\n      iszero\n      tag_172\n      jumpi\n        /* \"#utility.yul\":6758:6837   */\n      tag_173\n      tag_87\n      jump\t// in\n    tag_173:\n        /* \"#utility.yul\":6720:6839   */\n    tag_172:\n        /* \"#utility.yul\":6878:6879   */\n      0x00\n        /* \"#utility.yul\":6903:6967   */\n      tag_174\n        /* \"#utility.yul\":6959:6966   */\n      dup5\n        /* \"#utility.yul\":6950:6956   */\n      dup3\n        /* \"#utility.yul\":6939:6948   */\n      dup6\n        /* \"#utility.yul\":6935:6957   */\n      add\n        /* \"#utility.yul\":6903:6967   */\n      tag_105\n      jump\t// in\n    tag_174:\n        /* \"#utility.yul\":6893:6967   */\n      swap2\n      pop\n        /* \"#utility.yul\":6849:6977   */\n      pop\n        /* \"#utility.yul\":6633:6984   */\n      swap3\n      swap2\n      pop\n      pop\n      jump\t// out\n        /* \"#utility.yul\":6990:7163   */\n    tag_106:\n        /* \"#utility.yul\":7130:7155   */\n      0x6469646e27742073656e6420656e6f7567687420455448000000000000000000\n        /* \"#utility.yul\":7126:7127   */\n      0x00\n        /* \"#utility.yul\":7118:7124   */\n      dup3\n        /* \"#utility.yul\":7114:7128   */\n      add\n        /* \"#utility.yul\":7107:7156   */\n      mstore\n        /* \"#utility.yul\":6990:7163   */\n      pop\n      jump\t// out\n        /* \"#utility.yul\":7169:7535   */\n    tag_107:\n        /* \"#utility.yul\":7311:7314   */\n      0x00\n        /* \"#utility.yul\":7332:7399   */\n      tag_177\n        /* \"#utility.yul\":7396:7398   */\n      0x17\n        /* \"#utility.yul\":7391:7394   */\n      dup4\n        /* \"#utility.yul\":7332:7399   */\n      tag_96\n      jump\t// in\n    tag_177:\n        /* \"#utility.yul\":7325:7399   */\n      swap2\n      pop\n        /* \"#utility.yul\":7408:7501   */\n      tag_178\n        /* \"#utility.yul\":7497:7500   */\n      dup3\n        /* \"#utility.yul\":7408:7501   */\n      tag_106\n      jump\t// in\n    tag_178:\n        /* \"#utility.yul\":7526:7528   */\n      0x20\n        /* \"#utility.yul\":7521:7524   */\n      dup3\n        /* \"#utility.yul\":7517:7529   */\n      add\n        /* \"#utility.yul\":7510:7529   */\n      swap1\n      pop\n        /* \"#utility.yul\":7169:7535   */\n      swap2\n      swap1\n      pop\n      jump\t// out\n        /* \"#utility.yul\":7541:7960   */\n    tag_71:\n        /* \"#utility.yul\":7707:7711   */\n      0x00\n        /* \"#utility.yul\":7745:7747   */\n      0x20\n        /* \"#utility.yul\":7734:7743   */\n      dup3\n        /* \"#utility.yul\":7730:7748   */\n      add\n        /* \"#utility.yul\":7722:7748   */\n      swap1\n      pop\n        /* \"#utility.yul\":7794:7803   */\n      dup2\n        /* \"#utility.yul\":7788:7792   */\n      dup2\n        /* \"#utility.yul\":7784:7804   */\n      sub\n        /* \"#utility.yul\":7780:7781   */\n      0x00\n        /* \"#utility.yul\":7769:7778   */\n      dup4\n        /* \"#utility.yul\":7765:7782   */\n      add\n        /* \"#utility.yul\":7758:7805   */\n      mstore\n        /* \"#utility.yul\":7822:7953   */\n      tag_180\n        /* \"#utility.yul\":7948:7952   */\n      dup2\n        /* \"#utility.yul\":7822:7953   */\n      tag_107\n      jump\t// in\n    tag_180:\n        /* \"#utility.yul\":7814:7953   */\n      swap1\n      pop\n        /* \"#utility.yul\":7541:7960   */\n      swap2\n      swap1\n      pop\n      jump\t// out\n        /* \"#utility.yul\":7966:8146   */\n    tag_108:\n        /* \"#utility.yul\":8014:8091   */\n      0x4e487b7100000000000000000000000000000000000000000000000000000000\n        /* \"#utility.yul\":8011:8012   */\n      0x00\n        /* \"#utility.yul\":8004:8092   */\n      mstore\n        /* \"#utility.yul\":8111:8115   */\n      0x11\n        /* \"#utility.yul\":8108:8109   */\n      0x04\n        /* \"#utility.yul\":8101:8116   */\n      mstore\n        /* \"#utility.yul\":8135:8139   */\n      0x24\n        /* \"#utility.yul\":8132:8133   */\n      0x00\n        /* \"#utility.yul\":8125:8140   */\n      revert\n        /* \"#utility.yul\":8152:8343   */\n    tag_74:\n        /* \"#utility.yul\":8192:8195   */\n      0x00\n        /* \"#utility.yul\":8211:8231   */\n      tag_183\n        /* \"#utility.yul\":8229:8230   */\n      dup3\n        /* \"#utility.yul\":8211:8231   */\n      tag_84\n      jump\t// in\n    tag_183:\n        /* \"#utility.yul\":8206:8231   */\n      swap2\n      pop\n        /* \"#utility.yul\":8245:8265   */\n      tag_184\n        /* \"#utility.yul\":8263:8264   */\n      dup4\n        /* \"#utility.yul\":8245:8265   */\n      tag_84\n      jump\t// in\n    tag_184:\n        /* \"#utility.yul\":8240:8265   */\n      swap3\n      pop\n        /* \"#utility.yul\":8288:8289   */\n      dup3\n        /* \"#utility.yul\":8285:8286   */\n      dup3\n        /* \"#utility.yul\":8281:8290   */\n      add\n        /* \"#utility.yul\":8274:8290   */\n      swap1\n      pop\n        /* \"#utility.yul\":8309:8312   */\n      dup1\n        /* \"#utility.yul\":8306:8307   */\n      dup3\n        /* \"#utility.yul\":8303:8313   */\n      gt\n        /* \"#utility.yul\":8300:8336   */\n      iszero\n      tag_185\n      jumpi\n        /* \"#utility.yul\":8316:8334   */\n      tag_186\n      tag_108\n      jump\t// in\n    tag_186:\n        /* \"#utility.yul\":8300:8336   */\n    tag_185:\n        /* \"#utility.yul\":8152:8343   */\n      swap3\n      swap2\n      pop\n      pop\n      jump\t// out\n\n    auxdata: 0xa26469706673582212205444cce9be78d875f9a74d6b9ecf43f90e36a352911f7fba4ef3ad4b6f35a23b64736f6c634300081e0033\n}\n",
				"bytecode": {
					"linkReferences": {
						"3-FundMe/PriceConverter.sol": {
							"PriceConverter": [
								{
									"length": 20,
									"start": 955
								},
								{
									"length": 20,
									"start": 1078
								}
							]
						}
					},
					"object": "6080604052674563918244f400005f553480156019575f5ffd5b50610a6e806100275f395ff3fe608060405260043610610049575f3560e01c8063098de8201461004d5780633ccfd60b146100775780633e47d6f31461008d578063b60d4288146100c9578063dc0d3dff146100d3575b5f5ffd5b348015610058575f5ffd5b5061006161010f565b60405161006e919061066f565b60405180910390f35b348015610082575f5ffd5b5061008b610114565b005b348015610098575f5ffd5b506100b360048036038101906100ae91906106e6565b61037c565b6040516100c0919061066f565b60405180910390f35b6100d1610391565b005b3480156100de575f5ffd5b506100f960048036038101906100f4919061073b565b61057a565b6040516101069190610775565b60405180910390f35b5f5481565b5f5f90505b6001805490508110156101b5575f6001828154811061013b5761013a61078e565b5b905f5260205f20015f9054906101000a900473ffffffffffffffffffffffffffffffffffffffff1690505f60025f8373ffffffffffffffffffffffffffffffffffffffff1673ffffffffffffffffffffffffffffffffffffffff1681526020019081526020015f2081905550508080600101915050610119565b505f67ffffffffffffffff8111156101d0576101cf6107bb565b5b6040519080825280602002602001820160405280156101fe5781602001602082028036833780820191505090505b50600190805190602001906102149291906105b5565b503373ffffffffffffffffffffffffffffffffffffffff166108fc4790811502906040515f60405180830381858888f19350505050158015610258573d5f5f3e3d5ffd5b505f3373ffffffffffffffffffffffffffffffffffffffff166108fc4790811502906040515f60405180830381858888f193505050509050806102d0576040517f08c379a00000000000000000000000000000000000000000000000000000000081526004016102c790610842565b60405180910390fd5b5f3373ffffffffffffffffffffffffffffffffffffffff16476040516102f59061088d565b5f6040518083038185875af1925050503d805f811461032f576040519150601f19603f3d011682016040523d82523d5f602084013e610334565b606091505b5050905080610378576040517f08c379a000000000000000000000000000000000000000000000000000000000815260040161036f906108eb565b60405180910390fd5b5050565b6002602052805f5260405f205f915090505481565b3473__$b783afe118d26d4eca8a8448152f83860c$__636e5b6b2890916040518263ffffffff1660e01b81526004016103ca9190610918565b602060405180830381865af41580156103e5573d5f5f3e3d5ffd5b505050506040513d601f19601f820116820180604052508101906104099190610945565b505f543473__$b783afe118d26d4eca8a8448152f83860c$__636e5b6b2890916040518263ffffffff1660e01b81526004016104459190610918565b602060405180830381865af4158015610460573d5f5f3e3d5ffd5b505050506040513d601f19601f820116820180604052508101906104849190610945565b10156104c5576040517f08c379a00000000000000000000000000000000000000000000000000000000081526004016104bc906109ba565b60405180910390fd5b600133908060018154018082558091505060019003905f5260205f20015f9091909190916101000a81548173ffffffffffffffffffffffffffffffffffffffff021916908373ffffffffffffffffffffffffffffffffffffffff1602179055503460025f3373ffffffffffffffffffffffffffffffffffffffff1673ffffffffffffffffffffffffffffffffffffffff1681526020019081526020015f205f8282546105719190610a05565b92505081905550565b60018181548110610589575f80fd5b905f5260205f20015f915054906101000a900473ffffffffffffffffffffffffffffffffffffffff1681565b828054828255905f5260205f2090810192821561062b579160200282015b8281111561062a578251825f6101000a81548173ffffffffffffffffffffffffffffffffffffffff021916908373ffffffffffffffffffffffffffffffffffffffff160217905550916020019190600101906105d3565b5b509050610638919061063c565b5090565b5b80821115610653575f815f90555060010161063d565b5090565b5f819050919050565b61066981610657565b82525050565b5f6020820190506106825f830184610660565b92915050565b5f5ffd5b5f73ffffffffffffffffffffffffffffffffffffffff82169050919050565b5f6106b58261068c565b9050919050565b6106c5816106ab565b81146106cf575f5ffd5b50565b5f813590506106e0816106bc565b92915050565b5f602082840312156106fb576106fa610688565b5b5f610708848285016106d2565b91505092915050565b61071a81610657565b8114610724575f5ffd5b50565b5f8135905061073581610711565b92915050565b5f602082840312156107505761074f610688565b5b5f61075d84828501610727565b91505092915050565b61076f816106ab565b82525050565b5f6020820190506107885f830184610766565b92915050565b7f4e487b71000000000000000000000000000000000000000000000000000000005f52603260045260245ffd5b7f4e487b71000000000000000000000000000000000000000000000000000000005f52604160045260245ffd5b5f82825260208201905092915050565b7f53656e64206661696c65640000000000000000000000000000000000000000005f82015250565b5f61082c600b836107e8565b9150610837826107f8565b602082019050919050565b5f6020820190508181035f83015261085981610820565b9050919050565b5f81905092915050565b50565b5f6108785f83610860565b91506108838261086a565b5f82019050919050565b5f6108978261086d565b9150819050919050565b7f43616c6c206661696c65640000000000000000000000000000000000000000005f82015250565b5f6108d5600b836107e8565b91506108e0826108a1565b602082019050919050565b5f6020820190508181035f830152610902816108c9565b9050919050565b61091281610657565b82525050565b5f60208201905061092b5f830184610909565b92915050565b5f8151905061093f81610711565b92915050565b5f6020828403121561095a57610959610688565b5b5f61096784828501610931565b91505092915050565b7f6469646e27742073656e6420656e6f75676874204554480000000000000000005f82015250565b5f6109a46017836107e8565b91506109af82610970565b602082019050919050565b5f6020820190508181035f8301526109d181610998565b9050919050565b7f4e487b71000000000000000000000000000000000000000000000000000000005f52601160045260245ffd5b5f610a0f82610657565b9150610a1a83610657565b9250828201905080821115610a3257610a316109d8565b5b9291505056fea26469706673582212205444cce9be78d875f9a74d6b9ecf43f90e36a352911f7fba4ef3ad4b6f35a23b64736f6c634300081e0033",
					"opcodes": "PUSH1 0x80 PUSH1 0x40 MSTORE PUSH8 0x4563918244F40000 PUSH0 SSTORE CALLVALUE DUP1 ISZERO PUSH1 0x19 JUMPI PUSH0 PUSH0 REVERT JUMPDEST POP PUSH2 0xA6E DUP1 PUSH2 0x27 PUSH0 CODECOPY PUSH0 RETURN INVALID PUSH1 0x80 PUSH1 0x40 MSTORE PUSH1 0x4 CALLDATASIZE LT PUSH2 0x49 JUMPI PUSH0 CALLDATALOAD PUSH1 0xE0 SHR DUP1 PUSH4 0x98DE820 EQ PUSH2 0x4D JUMPI DUP1 PUSH4 0x3CCFD60B EQ PUSH2 0x77 JUMPI DUP1 PUSH4 0x3E47D6F3 EQ PUSH2 0x8D JUMPI DUP1 PUSH4 0xB60D4288 EQ PUSH2 0xC9 JUMPI DUP1 PUSH4 0xDC0D3DFF EQ PUSH2 0xD3 JUMPI JUMPDEST PUSH0 PUSH0 REVERT JUMPDEST CALLVALUE DUP1 ISZERO PUSH2 0x58 JUMPI PUSH0 PUSH0 REVERT JUMPDEST POP PUSH2 0x61 PUSH2 0x10F JUMP JUMPDEST PUSH1 0x40 MLOAD PUSH2 0x6E SWAP2 SWAP1 PUSH2 0x66F JUMP JUMPDEST PUSH1 0x40 MLOAD DUP1 SWAP2 SUB SWAP1 RETURN JUMPDEST CALLVALUE DUP1 ISZERO PUSH2 0x82 JUMPI PUSH0 PUSH0 REVERT JUMPDEST POP PUSH2 0x8B PUSH2 0x114 JUMP JUMPDEST STOP JUMPDEST CALLVALUE DUP1 ISZERO PUSH2 0x98 JUMPI PUSH0 PUSH0 REVERT JUMPDEST POP PUSH2 0xB3 PUSH1 0x4 DUP1 CALLDATASIZE SUB DUP2 ADD SWAP1 PUSH2 0xAE SWAP2 SWAP1 PUSH2 0x6E6 JUMP JUMPDEST PUSH2 0x37C JUMP JUMPDEST PUSH1 0x40 MLOAD PUSH2 0xC0 SWAP2 SWAP1 PUSH2 0x66F JUMP JUMPDEST PUSH1 0x40 MLOAD DUP1 SWAP2 SUB SWAP1 RETURN JUMPDEST PUSH2 0xD1 PUSH2 0x391 JUMP JUMPDEST STOP JUMPDEST CALLVALUE DUP1 ISZERO PUSH2 0xDE JUMPI PUSH0 PUSH0 REVERT JUMPDEST POP PUSH2 0xF9 PUSH1 0x4 DUP1 CALLDATASIZE SUB DUP2 ADD SWAP1 PUSH2 0xF4 SWAP2 SWAP1 PUSH2 0x73B JUMP JUMPDEST PUSH2 0x57A JUMP JUMPDEST PUSH1 0x40 MLOAD PUSH2 0x106 SWAP2 SWAP1 PUSH2 0x775 JUMP JUMPDEST PUSH1 0x40 MLOAD DUP1 SWAP2 SUB SWAP1 RETURN JUMPDEST PUSH0 SLOAD DUP2 JUMP JUMPDEST PUSH0 PUSH0 SWAP1 POP JUMPDEST PUSH1 0x1 DUP1 SLOAD SWAP1 POP DUP2 LT ISZERO PUSH2 0x1B5 JUMPI PUSH0 PUSH1 0x1 DUP3 DUP2 SLOAD DUP2 LT PUSH2 0x13B JUMPI PUSH2 0x13A PUSH2 0x78E JUMP JUMPDEST JUMPDEST SWAP1 PUSH0 MSTORE PUSH1 0x20 PUSH0 KECCAK256 ADD PUSH0 SWAP1 SLOAD SWAP1 PUSH2 0x100 EXP SWAP1 DIV PUSH20 0xFFFFFFFFFFFFFFFFFFFFFFFFFFFFFFFFFFFFFFFF AND SWAP1 POP PUSH0 PUSH1 0x2 PUSH0 DUP4 PUSH20 0xFFFFFFFFFFFFFFFFFFFFFFFFFFFFFFFFFFFFFFFF AND PUSH20 0xFFFFFFFFFFFFFFFFFFFFFFFFFFFFFFFFFFFFFFFF AND DUP2 MSTORE PUSH1 0x20 ADD SWAP1 DUP2 MSTORE PUSH1 0x20 ADD PUSH0 KECCAK256 DUP2 SWAP1 SSTORE POP POP DUP1 DUP1 PUSH1 0x1 ADD SWAP2 POP POP PUSH2 0x119 JUMP JUMPDEST POP PUSH0 PUSH8 0xFFFFFFFFFFFFFFFF DUP2 GT ISZERO PUSH2 0x1D0 JUMPI PUSH2 0x1CF PUSH2 0x7BB JUMP JUMPDEST JUMPDEST PUSH1 0x40 MLOAD SWAP1 DUP1 DUP3 MSTORE DUP1 PUSH1 0x20 MUL PUSH1 0x20 ADD DUP3 ADD PUSH1 0x40 MSTORE DUP1 ISZERO PUSH2 0x1FE JUMPI DUP2 PUSH1 0x20 ADD PUSH1 0x20 DUP3 MUL DUP1 CALLDATASIZE DUP4 CALLDATACOPY DUP1 DUP3 ADD SWAP2 POP POP SWAP1 POP JUMPDEST POP PUSH1 0x1 SWAP1 DUP1 MLOAD SWAP1 PUSH1 0x20 ADD SWAP1 PUSH2 0x214 SWAP3 SWAP2 SWAP1 PUSH2 0x5B5 JUMP JUMPDEST POP CALLER PUSH20 0xFFFFFFFFFFFFFFFFFFFFFFFFFFFFFFFFFFFFFFFF AND PUSH2 0x8FC SELFBALANCE SWAP1 DUP2 ISZERO MUL SWAP1 PUSH1 0x40 MLOAD PUSH0 PUSH1 0x40 MLOAD DUP1 DUP4 SUB DUP2 DUP6 DUP9 DUP9 CALL SWAP4 POP POP POP POP ISZERO DUP1 ISZERO PUSH2 0x258 JUMPI RETURNDATASIZE PUSH0 PUSH0 RETURNDATACOPY RETURNDATASIZE PUSH0 REVERT JUMPDEST POP PUSH0 CALLER PUSH20 0xFFFFFFFFFFFFFFFFFFFFFFFFFFFFFFFFFFFFFFFF AND PUSH2 0x8FC SELFBALANCE SWAP1 DUP2 ISZERO MUL SWAP1 PUSH1 0x40 MLOAD PUSH0 PUSH1 0x40 MLOAD DUP1 DUP4 SUB DUP2 DUP6 DUP9 DUP9 CALL SWAP4 POP POP POP POP SWAP1 POP DUP1 PUSH2 0x2D0 JUMPI PUSH1 0x40 MLOAD PUSH32 0x8C379A000000000000000000000000000000000000000000000000000000000 DUP2 MSTORE PUSH1 0x4 ADD PUSH2 0x2C7 SWAP1 PUSH2 0x842 JUMP JUMPDEST PUSH1 0x40 MLOAD DUP1 SWAP2 SUB SWAP1 REVERT JUMPDEST PUSH0 CALLER PUSH20 0xFFFFFFFFFFFFFFFFFFFFFFFFFFFFFFFFFFFFFFFF AND SELFBALANCE PUSH1 0x40 MLOAD PUSH2 0x2F5 SWAP1 PUSH2 0x88D JUMP JUMPDEST PUSH0 PUSH1 0x40 MLOAD DUP1 DUP4 SUB DUP2 DUP6 DUP8 GAS CALL SWAP3 POP POP POP RETURNDATASIZE DUP1 PUSH0 DUP2 EQ PUSH2 0x32F JUMPI PUSH1 0x40 MLOAD SWAP2 POP PUSH1 0x1F NOT PUSH1 0x3F RETURNDATASIZE ADD AND DUP3 ADD PUSH1 0x40 MSTORE RETURNDATASIZE DUP3 MSTORE RETURNDATASIZE PUSH0 PUSH1 0x20 DUP5 ADD RETURNDATACOPY PUSH2 0x334 JUMP JUMPDEST PUSH1 0x60 SWAP2 POP JUMPDEST POP POP SWAP1 POP DUP1 PUSH2 0x378 JUMPI PUSH1 0x40 MLOAD PUSH32 0x8C379A000000000000000000000000000000000000000000000000000000000 DUP2 MSTORE PUSH1 0x4 ADD PUSH2 0x36F SWAP1 PUSH2 0x8EB JUMP JUMPDEST PUSH1 0x40 MLOAD DUP1 SWAP2 SUB SWAP1 REVERT JUMPDEST POP POP JUMP JUMPDEST PUSH1 0x2 PUSH1 0x20 MSTORE DUP1 PUSH0 MSTORE PUSH1 0x40 PUSH0 KECCAK256 PUSH0 SWAP2 POP SWAP1 POP SLOAD DUP2 JUMP JUMPDEST CALLVALUE PUSH20 0x0 PUSH4 0x6E5B6B28 SWAP1 SWAP2 PUSH1 0x40 MLOAD DUP3 PUSH4 0xFFFFFFFF AND PUSH1 0xE0 SHL DUP2 MSTORE PUSH1 0x4 ADD PUSH2 0x3CA SWAP2 SWAP1 PUSH2 0x918 JUMP JUMPDEST PUSH1 0x20 PUSH1 0x40 MLOAD DUP1 DUP4 SUB DUP2 DUP7 GAS DELEGATECALL ISZERO DUP1 ISZERO PUSH2 0x3E5 JUMPI RETURNDATASIZE PUSH0 PUSH0 RETURNDATACOPY RETURNDATASIZE PUSH0 REVERT JUMPDEST POP POP POP POP PUSH1 0x40 MLOAD RETURNDATASIZE PUSH1 0x1F NOT PUSH1 0x1F DUP3 ADD AND DUP3 ADD DUP1 PUSH1 0x40 MSTORE POP DUP2 ADD SWAP1 PUSH2 0x409 SWAP2 SWAP1 PUSH2 0x945 JUMP JUMPDEST POP PUSH0 SLOAD CALLVALUE PUSH20 0x0 PUSH4 0x6E5B6B28 SWAP1 SWAP2 PUSH1 0x40 MLOAD DUP3 PUSH4 0xFFFFFFFF AND PUSH1 0xE0 SHL DUP2 MSTORE PUSH1 0x4 ADD PUSH2 0x445 SWAP2 SWAP1 PUSH2 0x918 JUMP JUMPDEST PUSH1 0x20 PUSH1 0x40 MLOAD DUP1 DUP4 SUB DUP2 DUP7 GAS DELEGATECALL ISZERO DUP1 ISZERO PUSH2 0x460 JUMPI RETURNDATASIZE PUSH0 PUSH0 RETURNDATACOPY RETURNDATASIZE PUSH0 REVERT JUMPDEST POP POP POP POP PUSH1 0x40 MLOAD RETURNDATASIZE PUSH1 0x1F NOT PUSH1 0x1F DUP3 ADD AND DUP3 ADD DUP1 PUSH1 0x40 MSTORE POP DUP2 ADD SWAP1 PUSH2 0x484 SWAP2 SWAP1 PUSH2 0x945 JUMP JUMPDEST LT ISZERO PUSH2 0x4C5 JUMPI PUSH1 0x40 MLOAD PUSH32 0x8C379A000000000000000000000000000000000000000000000000000000000 DUP2 MSTORE PUSH1 0x4 ADD PUSH2 0x4BC SWAP1 PUSH2 0x9BA JUMP JUMPDEST PUSH1 0x40 MLOAD DUP1 SWAP2 SUB SWAP1 REVERT JUMPDEST PUSH1 0x1 CALLER SWAP1 DUP1 PUSH1 0x1 DUP2 SLOAD ADD DUP1 DUP3 SSTORE DUP1 SWAP2 POP POP PUSH1 0x1 SWAP1 SUB SWAP1 PUSH0 MSTORE PUSH1 0x20 PUSH0 KECCAK256 ADD PUSH0 SWAP1 SWAP2 SWAP1 SWAP2 SWAP1 SWAP2 PUSH2 0x100 EXP DUP2 SLOAD DUP2 PUSH20 0xFFFFFFFFFFFFFFFFFFFFFFFFFFFFFFFFFFFFFFFF MUL NOT AND SWAP1 DUP4 PUSH20 0xFFFFFFFFFFFFFFFFFFFFFFFFFFFFFFFFFFFFFFFF AND MUL OR SWAP1 SSTORE POP CALLVALUE PUSH1 0x2 PUSH0 CALLER PUSH20 0xFFFFFFFFFFFFFFFFFFFFFFFFFFFFFFFFFFFFFFFF AND PUSH20 0xFFFFFFFFFFFFFFFFFFFFFFFFFFFFFFFFFFFFFFFF AND DUP2 MSTORE PUSH1 0x20 ADD SWAP1 DUP2 MSTORE PUSH1 0x20 ADD PUSH0 KECCAK256 PUSH0 DUP3 DUP3 SLOAD PUSH2 0x571 SWAP2 SWAP1 PUSH2 0xA05 JUMP JUMPDEST SWAP3 POP POP DUP2 SWAP1 SSTORE POP JUMP JUMPDEST PUSH1 0x1 DUP2 DUP2 SLOAD DUP2 LT PUSH2 0x589 JUMPI PUSH0 DUP1 REVERT JUMPDEST SWAP1 PUSH0 MSTORE PUSH1 0x20 PUSH0 KECCAK256 ADD PUSH0 SWAP2 POP SLOAD SWAP1 PUSH2 0x100 EXP SWAP1 DIV PUSH20 0xFFFFFFFFFFFFFFFFFFFFFFFFFFFFFFFFFFFFFFFF AND DUP2 JUMP JUMPDEST DUP3 DUP1 SLOAD DUP3 DUP3 SSTORE SWAP1 PUSH0 MSTORE PUSH1 0x20 PUSH0 KECCAK256 SWAP1 DUP2 ADD SWAP3 DUP3 ISZERO PUSH2 0x62B JUMPI SWAP2 PUSH1 0x20 MUL DUP3 ADD JUMPDEST DUP3 DUP2 GT ISZERO PUSH2 0x62A JUMPI DUP3 MLOAD DUP3 PUSH0 PUSH2 0x100 EXP DUP2 SLOAD DUP2 PUSH20 0xFFFFFFFFFFFFFFFFFFFFFFFFFFFFFFFFFFFFFFFF MUL NOT AND SWAP1 DUP4 PUSH20 0xFFFFFFFFFFFFFFFFFFFFFFFFFFFFFFFFFFFFFFFF AND MUL OR SWAP1 SSTORE POP SWAP2 PUSH1 0x20 ADD SWAP2 SWAP1 PUSH1 0x1 ADD SWAP1 PUSH2 0x5D3 JUMP JUMPDEST JUMPDEST POP SWAP1 POP PUSH2 0x638 SWAP2 SWAP1 PUSH2 0x63C JUMP JUMPDEST POP SWAP1 JUMP JUMPDEST JUMPDEST DUP1 DUP3 GT ISZERO PUSH2 0x653 JUMPI PUSH0 DUP2 PUSH0 SWAP1 SSTORE POP PUSH1 0x1 ADD PUSH2 0x63D JUMP JUMPDEST POP SWAP1 JUMP JUMPDEST PUSH0 DUP2 SWAP1 POP SWAP2 SWAP1 POP JUMP JUMPDEST PUSH2 0x669 DUP2 PUSH2 0x657 JUMP JUMPDEST DUP3 MSTORE POP POP JUMP JUMPDEST PUSH0 PUSH1 0x20 DUP3 ADD SWAP1 POP PUSH2 0x682 PUSH0 DUP4 ADD DUP5 PUSH2 0x660 JUMP JUMPDEST SWAP3 SWAP2 POP POP JUMP JUMPDEST PUSH0 PUSH0 REVERT JUMPDEST PUSH0 PUSH20 0xFFFFFFFFFFFFFFFFFFFFFFFFFFFFFFFFFFFFFFFF DUP3 AND SWAP1 POP SWAP2 SWAP1 POP JUMP JUMPDEST PUSH0 PUSH2 0x6B5 DUP3 PUSH2 0x68C JUMP JUMPDEST SWAP1 POP SWAP2 SWAP1 POP JUMP JUMPDEST PUSH2 0x6C5 DUP2 PUSH2 0x6AB JUMP JUMPDEST DUP2 EQ PUSH2 0x6CF JUMPI PUSH0 PUSH0 REVERT JUMPDEST POP JUMP JUMPDEST PUSH0 DUP2 CALLDATALOAD SWAP1 POP PUSH2 0x6E0 DUP2 PUSH2 0x6BC JUMP JUMPDEST SWAP3 SWAP2 POP POP JUMP JUMPDEST PUSH0 PUSH1 0x20 DUP3 DUP5 SUB SLT ISZERO PUSH2 0x6FB JUMPI PUSH2 0x6FA PUSH2 0x688 JUMP JUMPDEST JUMPDEST PUSH0 PUSH2 0x708 DUP5 DUP3 DUP6 ADD PUSH2 0x6D2 JUMP JUMPDEST SWAP2 POP POP SWAP3 SWAP2 POP POP JUMP JUMPDEST PUSH2 0x71A DUP2 PUSH2 0x657 JUMP JUMPDEST DUP2 EQ PUSH2 0x724 JUMPI PUSH0 PUSH0 REVERT JUMPDEST POP JUMP JUMPDEST PUSH0 DUP2 CALLDATALOAD SWAP1 POP PUSH2 0x735 DUP2 PUSH2 0x711 JUMP JUMPDEST SWAP3 SWAP2 POP POP JUMP JUMPDEST PUSH0 PUSH1 0x20 DUP3 DUP5 SUB SLT ISZERO PUSH2 0x750 JUMPI PUSH2 0x74F PUSH2 0x688 JUMP JUMPDEST JUMPDEST PUSH0 PUSH2 0x75D DUP5 DUP3 DUP6 ADD PUSH2 0x727 JUMP JUMPDEST SWAP2 POP POP SWAP3 SWAP2 POP POP JUMP JUMPDEST PUSH2 0x76F DUP2 PUSH2 0x6AB JUMP JUMPDEST DUP3 MSTORE POP POP JUMP JUMPDEST PUSH0 PUSH1 0x20 DUP3 ADD SWAP1 POP PUSH2 0x788 PUSH0 DUP4 ADD DUP5 PUSH2 0x766 JUMP JUMPDEST SWAP3 SWAP2 POP POP JUMP JUMPDEST PUSH32 0x4E487B7100000000000000000000000000000000000000000000000000000000 PUSH0 MSTORE PUSH1 0x32 PUSH1 0x4 MSTORE PUSH1 0x24 PUSH0 REVERT JUMPDEST PUSH32 0x4E487B7100000000000000000000000000000000000000000000000000000000 PUSH0 MSTORE PUSH1 0x41 PUSH1 0x4 MSTORE PUSH1 0x24 PUSH0 REVERT JUMPDEST PUSH0 DUP3 DUP3 MSTORE PUSH1 0x20 DUP3 ADD SWAP1 POP SWAP3 SWAP2 POP POP JUMP JUMPDEST PUSH32 0x53656E64206661696C6564000000000000000000000000000000000000000000 PUSH0 DUP3 ADD MSTORE POP JUMP JUMPDEST PUSH0 PUSH2 0x82C PUSH1 0xB DUP4 PUSH2 0x7E8 JUMP JUMPDEST SWAP2 POP PUSH2 0x837 DUP3 PUSH2 0x7F8 JUMP JUMPDEST PUSH1 0x20 DUP3 ADD SWAP1 POP SWAP2 SWAP1 POP JUMP JUMPDEST PUSH0 PUSH1 0x20 DUP3 ADD SWAP1 POP DUP2 DUP2 SUB PUSH0 DUP4 ADD MSTORE PUSH2 0x859 DUP2 PUSH2 0x820 JUMP JUMPDEST SWAP1 POP SWAP2 SWAP1 POP JUMP JUMPDEST PUSH0 DUP2 SWAP1 POP SWAP3 SWAP2 POP POP JUMP JUMPDEST POP JUMP JUMPDEST PUSH0 PUSH2 0x878 PUSH0 DUP4 PUSH2 0x860 JUMP JUMPDEST SWAP2 POP PUSH2 0x883 DUP3 PUSH2 0x86A JUMP JUMPDEST PUSH0 DUP3 ADD SWAP1 POP SWAP2 SWAP1 POP JUMP JUMPDEST PUSH0 PUSH2 0x897 DUP3 PUSH2 0x86D JUMP JUMPDEST SWAP2 POP DUP2 SWAP1 POP SWAP2 SWAP1 POP JUMP JUMPDEST PUSH32 0x43616C6C206661696C6564000000000000000000000000000000000000000000 PUSH0 DUP3 ADD MSTORE POP JUMP JUMPDEST PUSH0 PUSH2 0x8D5 PUSH1 0xB DUP4 PUSH2 0x7E8 JUMP JUMPDEST SWAP2 POP PUSH2 0x8E0 DUP3 PUSH2 0x8A1 JUMP JUMPDEST PUSH1 0x20 DUP3 ADD SWAP1 POP SWAP2 SWAP1 POP JUMP JUMPDEST PUSH0 PUSH1 0x20 DUP3 ADD SWAP1 POP DUP2 DUP2 SUB PUSH0 DUP4 ADD MSTORE PUSH2 0x902 DUP2 PUSH2 0x8C9 JUMP JUMPDEST SWAP1 POP SWAP2 SWAP1 POP JUMP JUMPDEST PUSH2 0x912 DUP2 PUSH2 0x657 JUMP JUMPDEST DUP3 MSTORE POP POP JUMP JUMPDEST PUSH0 PUSH1 0x20 DUP3 ADD SWAP1 POP PUSH2 0x92B PUSH0 DUP4 ADD DUP5 PUSH2 0x909 JUMP JUMPDEST SWAP3 SWAP2 POP POP JUMP JUMPDEST PUSH0 DUP2 MLOAD SWAP1 POP PUSH2 0x93F DUP2 PUSH2 0x711 JUMP JUMPDEST SWAP3 SWAP2 POP POP JUMP JUMPDEST PUSH0 PUSH1 0x20 DUP3 DUP5 SUB SLT ISZERO PUSH2 0x95A JUMPI PUSH2 0x959 PUSH2 0x688 JUMP JUMPDEST JUMPDEST PUSH0 PUSH2 0x967 DUP5 DUP3 DUP6 ADD PUSH2 0x931 JUMP JUMPDEST SWAP2 POP POP SWAP3 SWAP2 POP POP JUMP JUMPDEST PUSH32 0x6469646E27742073656E6420656E6F7567687420455448000000000000000000 PUSH0 DUP3 ADD MSTORE POP JUMP JUMPDEST PUSH0 PUSH2 0x9A4 PUSH1 0x17 DUP4 PUSH2 0x7E8 JUMP JUMPDEST SWAP2 POP PUSH2 0x9AF DUP3 PUSH2 0x970 JUMP JUMPDEST PUSH1 0x20 DUP3 ADD SWAP1 POP SWAP2 SWAP1 POP JUMP JUMPDEST PUSH0 PUSH1 0x20 DUP3 ADD SWAP1 POP DUP2 DUP2 SUB PUSH0 DUP4 ADD MSTORE PUSH2 0x9D1 DUP2 PUSH2 0x998 JUMP JUMPDEST SWAP1 POP SWAP2 SWAP1 POP JUMP JUMPDEST PUSH32 0x4E487B7100000000000000000000000000000000000000000000000000000000 PUSH0 MSTORE PUSH1 0x11 PUSH1 0x4 MSTORE PUSH1 0x24 PUSH0 REVERT JUMPDEST PUSH0 PUSH2 0xA0F DUP3 PUSH2 0x657 JUMP JUMPDEST SWAP2 POP PUSH2 0xA1A DUP4 PUSH2 0x657 JUMP JUMPDEST SWAP3 POP DUP3 DUP3 ADD SWAP1 POP DUP1 DUP3 GT ISZERO PUSH2 0xA32 JUMPI PUSH2 0xA31 PUSH2 0x9D8 JUMP JUMPDEST JUMPDEST SWAP3 SWAP2 POP POP JUMP INVALID LOG2 PUSH5 0x6970667358 0x22 SLT KECCAK256 SLOAD PREVRANDAO 0xCC 0xE9 0xBE PUSH25 0xD875F9A74D6B9ECF43F90E36A352911F7FBA4EF3AD4B6F35A2 EXTCODESIZE PUSH5 0x736F6C6343 STOP ADDMOD 0x1E STOP CALLER "
				},
				"gasEstimates": {
					"creation": {
						"codeDepositCost": "534000",
						"executionCost": "22671",
						"totalCost": "556671"
					},
					"external": {
						"addressToAmountFunded(address)": "2824",
						"fund()": "infinite",
						"funders(uint256)": "5010",
						"minimumUsd()": "2402",
						"withdraw()": "infinite"
					}
				},
				"methodIdentifiers": {
					"addressToAmountFunded(address)": "3e47d6f3",
					"fund()": "b60d4288",
					"funders(uint256)": "dc0d3dff",
					"minimumUsd()": "098de820",
					"withdraw()": "3ccfd60b"
				}
			},
			"storageLayout": {
				"storage": [
					{
						"astId": 9,
						"contract": "3-FundMe/FundMe.sol:FundMe",
						"label": "minimumUsd",
						"offset": 0,
						"slot": "0",
						"type": "t_uint256"
					},
					{
						"astId": 12,
						"contract": "3-FundMe/FundMe.sol:FundMe",
						"label": "funders",
						"offset": 0,
						"slot": "1",
						"type": "t_array(t_address)dyn_storage"
					},
					{
						"astId": 16,
						"contract": "3-FundMe/FundMe.sol:FundMe",
						"label": "addressToAmountFunded",
						"offset": 0,
						"slot": "2",
						"type": "t_mapping(t_address,t_uint256)"
					}
				],
				"types": {
					"t_address": {
						"encoding": "inplace",
						"label": "address",
						"numberOfBytes": "20"
					},
					"t_array(t_address)dyn_storage": {
						"base": "t_address",
						"encoding": "dynamic_array",
						"label": "address[]",
						"numberOfBytes": "32"
					},
					"t_mapping(t_address,t_uint256)": {
						"encoding": "mapping",
						"key": "t_address",
						"label": "mapping(address => uint256)",
						"numberOfBytes": "32",
						"value": "t_uint256"
					},
					"t_uint256": {
						"encoding": "inplace",
						"label": "uint256",
						"numberOfBytes": "32"
					}
				}
			},
			"userdoc": {
				"kind": "user",
				"methods": {},
				"version": 1
			}
		}
	}
}